:020000040800F2
:100000000050002005CC0008CDC9000855CC0008E0
:1000100000000000000000000000000000000000E0
:1000200000000000000000000000000055CC0008A7
:10003000000000000000000055CC0008B5B7000823
:1000400055CC000855CC0008A1C2000855CC0008CA
:1000500055CC0008E9BC0008F9BC000809BD00083F
:1000600055CC000855CC000855CC000855CC0008EC
:1000700055CC000855CC000855CC000855CC0008DC
:1000800055CC000855CC000855CC000800000000F5
:1000900055CC000855CC000855CC000855CC0008BC
:1000A00055CC000855CC000855CC000855CC0008AC
:1000B00065CB000855CC00080000000055CC0008B6
:1000C0000448054B10B5834203D0044B002B00D0ED
:1000D000984710BD8004002080040020000000002C
:1000E00006480749091A8910CB0F591810B549104D
:1000F00003D0044B002B00D0984710BD8004002093
:10010000800400200000000010B5074C2378002B6D
:1001100009D1FFF7D5FF054B002B02D0044800E0C2
:1001200000BF0123237010BD8004002000000000E8
:10013000083A0108054B10B5002B03D004490548C7
:1001400000E000BFFFF7CCFF10BDC046000000007C
:1001500084040020083A01080022014B1A707047FD
:100160008E050020014B18787047C0468E05002090
:1001700010B5034C034922780CF023FD207810BD04
:100180008E0500209C04002030B5094D00222B78FC
:10019000EF2B0AD8074CE054581CC0B22254DA1C8A
:1001A0000233D2B2DBB22A70E154100030BDC04637
:1001B0008E0500209C04002070B50F4D06002C78A1
:1001C000081C0023EE2C15D80C490EF0BBFF0FF0D5
:1001D000AFFA02210A4A631CDBB2165500B2D154B1
:1001E0006318DBB20112D154231D0334DBB2E4B235
:1001F0002B701055180070BD8E0500200000C842FD
:100200009C040020F8B5002406000D0023000F27F1
:10021000A54203D1094810F051FFF8BD002B02D0D0
:10022000064810F04BFF315D0548013410F046FFE1
:1002300023003B405A425341DBB2E9E7DF28010883
:10024000612F010810B5012803D1034810F036FFD3
:1002500010BD0248FAE7C046822C0108B92C0108FB
:10026000F7B50400417827001C4810F027FFA61CB2
:1002700009371B4D31782800013610F01FFFBE42B0
:10028000F7D1184F2600380010F018FF617A164891
:1002900010F014FF230011330A360193317828003F
:1002A00010F00CFF019B0136B342F7D1380010F07B
:1002B00005FF617C0D4810F001FFA17C280010F0C3
:1002C000FDFEE17C280010F0F9FE217D280010F0F1
:1002D000F5FE074810F0F2FEF7BDC046432C0108BA
:1002E000562C0108DF2801085C2C01086F2C01083E
:1002F000DE2801080B7870B5050016001448154C6F
:10030000012B07D0002B1AD0032B1CD010F0D6FEE7
:10031000114802E010F0D2FE104810F0CFFE20008D
:1003200010F0CCFE0E4BAA00D1580E4810F0C6FEBD
:100330000B2D03D131000C4810F0C0FE70BD10F041
:10034000BDFE0A48E9E710F0B9FE0948E5E7C046F6
:1003500066290108D1290108702A01089C29010891
:1003600044000020A52A0108B72A0108062A01082E
:100370003B2A010870B505000878160001381D4BAE
:100380001D4C092830D80EF077F9052F2F1B252A90
:100390002F2F2F20180010F091FE184810F08EFE1D
:1003A000200010F08BFE164BAA00D158154810F013
:1003B00085FE0B2D03D13100134810F07FFE70BD78
:1003C000180010F07BFE1148E8E7180010F076FEE8
:1003D0000F48E3E7180010F071FE0E48DEE7180042
:1003E00010F06CFE0C48D9E7180010F067FE0B48BF
:1003F000D4E7C046CF2A0108D1290108052B0108FE
:1004000044000020A52A0108B72A01083A2B010858
:100410006F2B0108A42B0108D92B01080E2C010811
:10042000036810B51B780400002B17D00523C356B2
:10043000002B12D1114810F041FE114810F03EFE81
:1004400023681048D96910F039FE0F4810F036FEC5
:1004500004210E48615610F031FE10BD074810F01F
:100460002DFE0B4810F02AFE23680A48D96910F0C7
:1004700025FE054810F022FEEFE7C046E1280108FE
:10048000162901081E290108DE280108342901085F
:100490004A2901085129010870B503788AB004007F
:1004A000494E4A4D002B0AD1494810F007FE6378A7
:1004B00028009B00F15810F001FE0AB070BD4548BD
:1004C00010F0FCFD637828009B00F15810F0F6FD59
:1004D000E168414810F0F2FD404E300010F0EEFDB2
:1004E00000F0C2FB3E4B195C3E4810F0E7FD3000C7
:1004F00010F0E4FD217C3C4810F0E0FD637C002B13
:1005000011D03A4810F0DAFD237A012B43D1637AF7
:100510003749002B00D13749374810F0CFFD617CB7
:100520006069FFF76FFE300010F0C8FD0A21334804
:10053000615610F0C3FD1E2301AD28002B7004F09E
:100540002BFF002807D10C23627E2D4853436A6895
:10055000995810F0B3FD18212A48615610F0AEFDED
:10056000232328002B7004F017FF00281FD12648F2
:1005700010F0A4FD00F050FC092808D801238340A6
:10058000224C1C400BD183225200134213D120482D
:1005900010F094FD08E01F4810F090FDBFE76B6875
:1005A0001D48198810F08AFD300010F087FD3000DA
:1005B00010F084FD81E76B681748195B023410F076
:1005C0007DFD0A2CF7D1EFE700000020A52A0108E5
:1005D000EB2D0108212E0108572E0108DF28010804
:1005E0005D2F0108892E01089B2E0108AD2E010800
:1005F000E72D0108E62D0108BC2E0108D92E0108BF
:10060000EE2E0108012F0108132F0108F902000046
:10061000282F0108CC2E0108222F0108F0B587B041
:100620006A460C00274B050043CB43C243CB43C271
:100630002378254F254E002B0AD1254810F03EFD8A
:10064000637830009B00F95810F038FD07B0F0BD1A
:10065000204810F033FD637830009B00F95810F00B
:100660002DFDE1681C4810F029FD10236A46E35671
:100670001A489B00995810F021FD2978184810F06D
:100680001DFD6B78002B06D0164810F017FD697819
:100690006868FFF7B7FD144D280010F00FFD082122
:1006A0001248615610F00AFD09211148615610F0F8
:1006B00005FD0A210F48615610F000FD280010F0DA
:1006C000FDFCC3E79427010800000020A52A0108CB
:1006D000F02C0108262D01085C2D01088E2D010843
:1006E000A02D0108B22D0108DF280108D92E01082C
:1006F000C22D0108D42D010870B543780400022BE7
:1007000009D01948032B03D01848012B00D11848F1
:1007100010F0D4FC70BD4168164810F0CFFC617D2C
:10072000154810F0CBFC154810F0C8FC200006213D
:100730001630FFF767FD124D280010F0BFFCE1688E
:10074000104810F0BBFC217C0F4810F0B7FC1223BE
:10075000E15E0E4810F0B2FC14210D48615610F015
:10076000ADFC2800D4E7C04673280108AC27010877
:10077000E2270108182801083F280108512801082C
:10078000DF28010860280108D92E0108C22D0108C0
:10079000D42D010810B5034B195C034810F08EFCF2
:1007A00010BDC0465D2F0108A9280108704701202F
:1007B00070470120704700000A2330B587B001ADB3
:1007C00028002B7005F0E8F90400054B2A691B6826
:1007D0002900DB699847601E8441604207B030BD44
:1007E000B005002070B5134B8CB01B6803AC9B7830
:1007F000114A5BB2114E00280DD0012123713368DC
:10080000200011702170DD6905F0C6F92269210010
:10081000A8470CB070BD01AD2B7101236871200099
:1008200023702371019204F09DFE336828001B6A37
:100830009847EEE7C4050020A4000020B005002082
:10084000012370B5040010480025037063784370DD
:10085000A3788372E368C360E37803762369437601
:1008600023794372094B1B685B6A9847084BAA00BF
:10087000D358002B04D05B69002B01D0200098478F
:100880000135042DF2D170BDE0000020B00500203C
:10089000B4050020F0B53B4E3B4B0A0031603B49AC
:1008A000046819603A493B4F59603B493860996088
:1008B0003A498BB0D9603A4912780C604468C068F4
:1008C0004C60384CC8608C600024374804701800B5
:1008D00004F034FBA04251D1FFF76BFF01AC0028BC
:1008E0002AD13B681B6998471D2323703368200079
:1008F000DB780025237104F035FE0523237033686F
:1009000020005B78237104F02DFE3368187905F020
:10091000B9FA04F0D7FC01232000237004F03CFD59
:10092000A84206D12379AB4203D13B681F485B69DB
:10093000984728000BB0F0BD02232000237004F07C
:100940002BFD1A4D6168681C08220CF03AF903234C
:100950002000237004F020FD28006168082209307F
:100960000CF02FF904232000237004F015FD28005B
:100970000422113061680CF024F9B5E701256D42BD
:10098000D7E7C046C4050020D8050020410800086C
:10099000810C0008B0050020350D0008C90A0008C8
:1009A000C8050020AD070008AC050020A400002009
:1009B00010B5024B1878FFF715FF10BDA4000020FA
:1009C000012310B58AB001AC2000237004F0E4FCD0
:1009D0000023984203D12379581E8341DBB21800CB
:1009E0000AB010BD10B503F0F9F8002806D1FFF7E2
:1009F000E7FF012803D0FFF7DBFF012010BD024B0A
:100A00001B68DB689847F9E7B4050020F0B587B0AC
:100A100005000E00FFF7D4FF012806D0254B1878FB
:100A2000FFF7E0FE0120404231E0234C2368DB6801
:100A30009847002806D022682B7812789A4201D075
:100A4000002BEFD11D4F01AC3B6869469B78A37327
:100A5000687804F03FFC1A4B00281AD000221A7262
:100A60002270A260A2811A00103203CD03C23A683C
:100A7000200092789A7205F053F90500114B226913
:100A80001B6821009B699847681E8541684207B032
:100A9000F0BD2A781E7222716A78A2816A68A2600B
:100AA000002E01D12670DEE7012222700732E273A8
:100AB000D9E7C046A4000020B4050020C4050020EA
:100AC000E0000020B005002070B5040000202F4990
:100AD0008AB0087063784B700E2B03D02C4B1B68C8
:100AE0009B6A984700252B4EAB009B59002B04D0E6
:100AF0001B6A002B01D0200098470135042DF2D14C
:100B000023780B2B2ED00F2B0FD0072B0BD10023CC
:100B100001AC238002933368DB689847011E02D141
:100B20002000FFF773FF0AB070BD002401A8047015
:100B3000047104F017FD184D01232800062221003E
:100B400016306B706C606C750CF050F8104E200015
:100B50003368DB6A9847336828001B6B9847FFF7B8
:100B60002BFEE0E70A4B62781B680B48196B231DCC
:100B70000E2A08D10C3A4270021D70CB70C270CBA5
:100B800070C28847CFE70322F5E7C046CC000020BB
:100B9000B0050020B4050020900500200D230200C0
:100BA00030B589B003AC20792370063B1A409843D6
:100BB000104318402071200004F0EEFF094B226919
:100BC0001B682100DB6905009847002D07D101A8AB
:100BD000058029004560FFF719FF09B030BD0120ED
:100BE0004042FAE7B0050020F0B500278BB001AE17
:100BF00005003000377004F0CFFB33793C00AB4286
:100C000005D0012D18D0BD4204D0022D1AD02000ED
:100C10000BB0F0BD2C00002BF9D03000357104F082
:100C2000A1FC002802D001246442F0E728000C4B0C
:100C30001B68DB6A9847EAE7FFF7BEFD094B040033
:100C40001D70E4E75C1EA34130005C42357104F086
:100C500089FC0028E7D1024B28001B68DB6AE9E722
:100C6000B0050020AC050020002310B58AB001AC0F
:100C70002000237004F090FB20790AB010BD000022
:100C8000F0B50126224985B00E70457804004D70FC
:100C9000002D3BD16A4603791E4F0B72C3894B72FC
:100CA000037C8B724369CB60437C0B74C3781370F5
:100CB000037B53708368684601933B689B6A98473F
:100CC000237F002B04D03B6829005B6B30009847E2
:100CD0000025114BAA00D358002B08D09A69002A8E
:100CE00005D01978E378994201D120009047013569
:100CF000042DEED16379012B08D1FFF7B5FF011E5A
:100D000004D102A801804160FFF780FE05B0F0BD6C
:100D1000CC000020B0050020B40500202C2310B525
:100D20008AB001AC2000237004F036FB042020566A
:100D30000AB010BDF0B5002405003248324E0470F0
:100D40006B788BB0437033685B6A98472F4BA20077
:100D5000D358002B04D0DB69002B01D02800984722
:100D60000134042CF2D1287801380C281ED80DF05B
:100D700083FC071D1D1D1D1D1D1D1D1F1D2F390061
:100D8000072301AF38003B7004F006FB204C7A6863
:100D90002368DA61FFF7C2FF20716B7820005A1ECA
:100DA00093415B42637133681B6A98470BB0F0BD97
:100DB000184B1B78002BF9D00C2301AC20002370BA
:100DC00004F0EAFE33682269DB6921009847EDE709
:100DD0006B78002B03D10020FFF7E0FEE6E7FFF77A
:100DE000EBFCE3E76C78002CF5D1012501A8047039
:100DF000057104F0B7FB33682800DB6A9847054BA0
:100E00001C70D3E7E0000020B0050020B4050020EE
:100E1000C4000020AC050020014B1B681878704707
:100E2000C40500202F2200B58BB001AB0290180042
:100E30001A7004F097FB431E984140420BB000BD6E
:100E400070B504000D0003282AD80DF015FC02200F
:100E5000232600F0E9FD002822D0134BA400E05027
:100E6000124B44681B689A694262DA695B6B826262
:100E70000F4A8363C2620F4A0F4B02630F4A1B681B
:100E800042635A7928009968A047002070BD00F09D
:100E9000DFFBE0E701F012FADDE700F0B5FFDAE78B
:100EA00001204042F2E7C046B4050020B005002012
:100EB000E50700080D0A0008C4050020B90700086E
:100EC000044B8000C35810B59B68181E00D098478B
:100ED00010BDC046B4050020124B70B51B6E002B30
:100EE00000D0984703F024FB00240F4DA60073594F
:100EF000E0B2002B09D01B69002B06D0FFF7E0FF02
:100F0000002802D073591B6998470134042CECD196
:100F1000FFF74DFC002804D1044B01301B681B690E
:100F2000984770BD60380108B4050020B005002066
:100F3000064B10B51B680400002B06D01B68002B65
:100F400003D0514308002100984710BDE805002058
:100F5000064B10B51B680400002B06D05B68002B05
:100F600003D0514308002100984710BDE805002038
:100F7000C3080200C85C07239343184101231840AB
:100F80007047072383439A4010B5140001229A400A
:100F90001300C00809180A789A4312190A7010BD84
:100FA000002330B5934200D130BDC45CCD5C6C40B1
:100FB000C4540133F6E7F7B507000025009101920C
:100FC000019B9D4200D1F7BDAEB239003000FFF762
:100FD000CFFF009904003000FFF7CAFF4440E2B29F
:100FE00039003000FFF7CDFF0135E9E7F0B5002506
:100FF00001270F4B461E1A1D991CD28F9C88C98F42
:1010000096420ADC002D01D09D1CE987944201DC48
:101010000134A0B20433D887F0BD944205DD01311C
:1010200055005D1989B269823D000132E8E7C0468A
:10103000E8050020002330B5074C421CA58898B273
:10104000854201D8002005E059006118498A013322
:101050009142F4D130BDC046E8050020F7B50D1E21
:10106000009001921DD04C1E4C43631014004C4361
:10107000E41A174BE7101C4004D50823013C5B42DF
:101080001C43013400263000013600220099B6B21C
:10109000FFF777FFB542F6D10126019B9D4203D3AE
:1010A000F7BD0C000F00F7E70A4B0099DB191A7B1C
:1010B00007231B1B1A41280032400134FFF761FF50
:1010C000082C01D1002401370135ADB2E5E7C04657
:1010D00007000080E80500200023F7B50125144C27
:1010E0002260A080A1712364A360E21802335582BC
:1010F0002A2BFAD12300002541433C331D700123E4
:101100000E00FF275B42E3602374AE4202D100234E
:101110002364F7BD2368002B07D01B68002B04D085
:1011200001A90F700122280098470135EDE7C0465C
:10113000E8050020004870471A040000F0B50400DC
:1011400095B000910322002106A80BF04FFD32223A
:10115000002107A80BF04AFD0122002104A80BF092
:1011600045FD0122002105A80BF040FDBB4DEC8799
:101170002B1DDB8FA34203D90120404215B0F0BDE7
:10118000AB88A3420ED3611EAA79009889B2FFF7FB
:10119000CFFEE31D5B00ED18002320006B80FFF7FE
:1011A00025FFE9E7AE1CF38F052B04D90123443555
:1011B0002B700020E2E72000FFF718FF0020F38FDC
:1011C0008342DBD003000121AD88641B0A0082400A
:1011D0002A40C24001309B18DBB22028F6D1013BE7
:1011E0005A425A419E4B02925C430023190001343B
:1011F000EA109A421CDA00266B100193019B9E4272
:101200001CD0029BEF188022631163409B05D20320
:10121000134064101C19390020000DF0BBFB8D42F7
:10122000F1DD88B2012206A9FFF7ABFE0136E5E742
:1012300006A8C01801330170DBB2DAE7002501957A
:10124000864CA388AB4229DC0234E58F0024A542FA
:1012500049D10024019B012B00D08DE77F4E200057
:1012600031003C31FFF784FEB51CEB8F029301285F
:1012700042D0002C00D1C8E0651E65436B10029D72
:101280006543ED1AEB100193764B1D4004D50823FE
:10129000013D5B421D4301352700A1E0AFB206A925
:1012A0003800FFF765FE0600012812D16B00E31835
:1012B0005A8A002A0FD106A93800FFF762FEA279E8
:1012C000390007A8FFF744FEA27907A90098FFF7A5
:1012D00067FE0135B4E7013A90B204A93200FFF786
:1012E00050FE0196F5E704A92000FFF741FE012812
:1012F000B0D00134A4B2AAE72100029A05A8FFF7F2
:10130000ADFEEA8F05A904A8FFF755FE2000FFF700
:1013100091FE00240100B27907A8FFF719FEB27907
:1013200007A90098FFF73CFEED8FA54227D14B4B54
:101330009A1CD28F9E68964200D01DE73000012E85
:1013400000D81BE7023EB3B218000293FFF772FE0B
:10135000424C0190A2790100023407A8FFF7F8FD82
:10136000E58F013D3D4CB54252DCA279019907A8B9
:10137000FFF7DEFD013EE6D20234E08FFEE604A96F
:101380002000FFF7F5FD01280FD00134A4B2CCE70F
:1013900004A92000FFF7ECFD012800D15EE701342D
:1013A000A4B2A542F4D1002458E70024F9E704A927
:1013B0003800FFF7DDFD002809D1019A274B0121F4
:1013C0009B180722521B91401A7B8A431A730135DE
:1013D000082D03D10025019B013301930137BFB2D2
:1013E000029B9F42E3D32000FFF724FEB279010065
:1013F0000098FFF79DFD310001223C312000FFF7EE
:10140000C0FDB3680133B36091E72500019443E761
:10141000A71CFA8F029905A8FFF720FEABB2039331
:10142000190004A8FA8FFFF719FE05A9A8B2FFF763
:101430009FFD012895D1FA8F04A905A8FFF7BBFDF0
:10144000A8B2FFF7F7FDA27901000098FFF780FD31
:10145000A279009907A8FFF7A3FD82E7E80500201D
:10146000E90300000700008010B5040003490822CA
:101470003E310FF079FD200010BDC046E805002088
:10148000044B081E02D0012059609A7058701870E1
:101490007047C04630060020014B18787047C046A0
:1014A00030060020024B1878002800D0587870478A
:1014B00030060020F0B5C37885B00700CA2B2ED1C6
:1014C0000024230019E0BA68591CD05CC9B200910D
:1014D000032811D84A4E0DF0CFF80224678A002362
:1014E00001257268601C1355A31CDBB2C0B2033423
:1014F0001554E4B2D5540091009B3A7B9A42E2D84D
:10150000002C0CD0CA2302AA13703D4B54705B68A8
:101510000021009303933B4B10001B6B984705B0D1
:10152000F0BD00207073981DC0B20090387F01900C
:101530000028E1D1581DC0B2155C307A0007000FB9
:1015400084460F200540AC45D6D1981CC0B2155C2E
:10155000515CD81C2D02C0B204336918DBB2155C93
:10156000D35C2D046D181B0602A8ED1807F034FF9C
:10157000029B03995819029007F010FF0F21327A4D
:1015800013071B0F01330B408A43134333721D4B68
:101590009B6B002BB0D0022601986A1C96424041FA
:1015A0002900C0B29847A7E70233DBB200930223B9
:1015B0000121726802A81355631CDBB2D15407F0F5
:1015C0000BFF029B104AA11C9B187268C9B25354AE
:1015D000E11C180AC9B25054611D201D1D0CC9B26E
:1015E000C0B206341B0E1554E4B2535484E70233E0
:1015F000DBB20093535C0722134073737CE7C04651
:1016000030060020FC00002080C22AED30B50F4DCE
:101610008BB06B7A002B17D0052301AC2370AB7A0B
:101620002000237103F09EFF25232370EB7A200016
:10163000237103F097FF2C2323702B7B2000237151
:1016400003F090FF00236B720BB030BD300600201A
:1016500000487047FC000020F0B58DB0FFF7C2F9DC
:10166000002844D1234D03AC6F7A234E002F1FD1A5
:1016700005232000237003F08FFE23792000AB7236
:10168000277103F06FFF25232000237003F084FEF1
:1016900023792000EB720123237103F063FF2C23D5
:1016A0002000237003F078FE23792B73736B984727
:1016B00001A807F091FE114A019B01219B186A685D
:1016C000180A9070180CD070102053701B0E1371F4
:1016D0002B7A1170834353712B72094B69722380EB
:1016E0006260336B0021200098470DB0F0BD0120EF
:1016F0004042FAE730060020FC00002080C22AEDBC
:10170000CA06000010B5064C637B002B06D0FFF71D
:10171000A3FF002802D1637B013B637310BDC04669
:101720003006002010B5031E064C04D0002906D058
:101730000123A160A2712370034B186010BD0B0040
:101740000800F8E7400600206C060020014B1878DE
:101750007047C04640060020024B1878002800D091
:1017600058787047400600200122014BDA7070471C
:10177000400600207FB5002501A809F0F5FF1C4CAC
:1017800001A8E678E57009F0F4FFAE4222D0237894
:10179000AB421FD06378AB421CD0A27BA368AA42A5
:1017A00019D00322E27102321A70E27BA5735A70DB
:1017B000227C9A700122A270E02202AD2A70E279A6
:1017C0000C4803936A7007F0B3FE0B4B21791B6B37
:1017D000280098477FBDA278012A02D0042AEBD1C5
:1017E000E8E70222E271A289110A19705A70E3E750
:1017F000400600205406002038010020084B1A78CB
:10180000002A0BD05A78002A08D00278042A05D181
:10181000033A9A73027ADA73427A1A747047C046AE
:101820004006002070B57A4C8AB023780200002B65
:1018300043D0437B002B40D0C178E0293DD165786F
:10184000002D3CD1037B042B37D183681A78012A01
:1018500033D15A78012A30D19A78012A2DD1DB78F8
:10186000012B2AD1013201A8E27103326370A37007
:101870000371617102702571E570A581A573E5732F
:10188000257403F06FFE280004F0FCFA614B1B681E
:101890005B68002B00D098475F4D6049280007F037
:1018A0003DFE5F49280007F0E9FE684609F05CFF4D
:1018B00001236846E37009F05CFF0AB070BDA3899C
:1018C0000133A38183681878A0700A28F5D80CF03A
:1018D000D3FE061F22262A3D49638E9199004E4869
:1018E00007F09EFE00236370A3814A4C01A80533D4
:1018F000037023681B78037103F034FE2368587863
:1019000004F0C0FA23689B68002BD6D09847D4E730
:101910000223E371D1E701232371A370CDE70023F4
:1019200023710133F9E70421A568137B2970A1799C
:10193000E3718B4200D2190001238B42BDDA90681B
:10194000C05C0130E8540133DBB2F6E7042301AC9C
:101950002370344B20009D6A04F01EF90022210000
:10196000A847AAE700236370A3812A4C01A8053386
:10197000037023681B78037103F0F4FD2368587823
:1019800004F080FA23689B68002B00D09847254B11
:101990000120DB6A984790E7127B01AD032A10D142
:1019A00002322A705A789B7812021343AB801D4B87
:1019B00028009E6A04F0F0F800222900B0470123B5
:1019C000ABE7072AF3D1013A2A7059789A780902CD
:1019D0000A43AA80DA781979120409020A4359796C
:1019E0000A4364214A43AA609B792B73DFE701AC69
:1019F0000A23ADE7002201A802705B78037103F0AF
:101A0000B1FD5AE70D2201AC22705B782371A0E78B
:101A1000400600206C0600205406002069170008CC
:101A2000881300003801002000487047380100206A
:101A3000014B18787047C0468C060020024B18787E
:101A4000002800D0587870478C06002010B5034855
:101A500007F0E6FD0222024B9A7010BD70060020CE
:101A60008C060020F0B593B00090C378C92B23D129
:101A700000231C0004930193009A127B9A421DD804
:101A8000002C19D0B44E0CAD73686C706B60C92318
:101A90002B70019B002B00D157E1FA210020890017
:101AA0000BF084F8049B04339840AC4B1860AC4BAB
:101AB00006CD06C30123B37013B0F0BD009A5E1CBF
:101AC0009168F6B2C85C082818D80CF0D5FD051945
:101AD00057D717171717F700009B9B78012B0DD0CE
:101AE0009D4B03205A680023611CC9B21355505402
:101AF0000121A31CDBB22418E4B2D1543300BBE7AC
:101B00000233DBB2029318238F5D964E7D086B4340
:101B10000AA8F618FFF7A8FC300008220C300AA922
:101B20000FF022FAFB0703D4F389029E002BE5D0C5
:101B3000894B0120596818236B438A4E0855F318C6
:101B40009E892218D2B28E549A89A61C9204920EB3
:101B5000AD011543F6B28D55DE89E51CEDB24E554B
:101B60009D7C221DD2B205408D545B7905345B0704
:101B70005B0FE4B20493029E0190BFE7009A927853
:101B8000012ABBD0885D0CAA5070DA1CD2B28F5CDF
:101B90009A1CD2B28A5C3F0217431A1DD2B28A5CE9
:101BA000382501925A1DD2B28A5C1E0002929A1DFB
:101BB000D2B28A5C0B360592DA1DD2B28A5CF6B2DA
:101BC00006921A000832D2B28A5C07921A000A33CF
:101BD000DBB2CB5C09320993029BD2B21D406B1E73
:101BE0009D418A5CEDB20892152F3DD902231D4319
:101BF0000CAB5A789206920F91010D432900039580
:101C0000090724D1012119700199099819710299C4
:101C10000006597105995F8099710899090409189E
:101C2000069809180798000209180E9101214942E7
:101C30001191193151434B4A521823CB23C223CB64
:101C400023C2494B01991A683800FFF745FA02216F
:101C5000414B5A68631C115564180399DBB2E4B216
:101C6000D1540023019349E7019B322BBED8FFF7E3
:101C700061FA019B7B438342B8D8B9E7009A927816
:101C8000012A00D13AE703221820895D02330A4075
:101C900050433449DBB2455C002D0CD104210A438A
:101CA00003252D491E004868611C0555C9B2023440
:101CB000E4B24254D5E700254554F1E7DA1C02337B
:101CC000DBB2C85C8B5D000218431823870B7B4393
:101CD000244DD2B2ED186B6902925A1C22D1029B9C
:101CE0008004C918800CFFF729FA68610AA8FFF779
:101CF000BBFB280008220AA90C300FF035F91A4B5B
:101D00001B689E68002E04D0EB892A796988A8890F
:101D1000B04718235F43134BDF193E79029B9E198E
:101D2000F6B2EBE6002BF4DB02235B426B610E4B59
:101D30001B68DB68002BECD002206A8829794042BE
:101D40005143AA79891A9847E3E7084B01991B6B1D
:101D500028009847B0E6C0468C0600209806002070
:101D60009018002030180020880600207401002000
:101D700037B5002401A809F0F7FC0D4B01A89D78A8
:101D80009C7009F0F6FC012D02D0022D0AD037BD5F
:101D9000084C094B2000196807F070FC200007F080
:101DA000C7FBF4E721000548FEF730FEEFE7C04629
:101DB0008C06002070060020980600209018002055
:101DC00010B50C4B0C4C00280FD000290DD0DA7048
:101DD00001221A705A7000225960084B206008498D
:101DE00008481A6007F09AFB10BD002222605A7062
:101DF0001A70F9E78C06002088060020980600205B
:101E00004D1A000870060020004870477401002039
:101E1000014B18787047C0469C060020024B18788A
:101E2000002800D0587870479C06002010B5034861
:101E300007F0F6FB0222024B9A7010BDBC06002090
:101E40009C06002010B5034807F0EAFB0122024B74
:101E50009A7010BDA40600209C060020F0B591B039
:101E60000290C378C82B6CD10023009320E0029A23
:101E70005F1C9268FFB2D05C042818D80CF010FCEC
:101E8000050017006300FD001801D54B02205A68B9
:101E90000023009953540B000131C9B250540099EA
:101EA00002330331C9B200910121DBB2D1543B00AE
:101EB000029A127B9A42DAD8009B002B41D0C823A9
:101EC00008A80370009B00214370C54B01255B6887
:101ED0004360C44B1B6B9847C34CC44821788907A7
:101EE000890F0FF0EBF86168C1480FF0E7F8217A2D
:101EF000C0480FF0E3F86319197ABF4801350FF0B5
:101F0000DDF8102DF7D1BD480FF0D8F8A169BC4815
:101F10000FF0D4F8E169BB480FF0D0F8616ABA4815
:101F20000FF0CCF8230028331978B8480FF0C6F822
:101F3000E16AB7480FF0C2F83021B64861560FF099
:101F4000BDF811B0F0BD3424D15DA74E4C438C4692
:101F5000A155991CC9B2575C3519D91C6F60C9B21B
:101F6000505C08340002C719181D6F60C0B2105CC5
:101F7000991D0004C0195F1D6860FFB2D75DC9B22A
:101F80003F06381803906860A019059004001800F7
:101F90001630C0B24D1C515C2170E9B2013481424F
:101FA000F8D119001631C9B2545C3420614641435E
:101FB00018008D4E0191173071188C61C0B2175CFA
:101FC0003F0238191C0018348861E4B2175D3F04E1
:101FD0003F18180019308F61C0B2105C0006C0199C
:101FE0008861049018001A30C0B2145C18001B30CD
:101FF000CC61C0B2105C1F000002041918001C3034
:10200000CC61C0B2155C1D332D042819C861DBB248
:10201000D55C14222D062D18CD610BA800210EF0E1
:10202000E7FF0123022208AC019962702370A370BC
:102030008B5D03999B07616005999B0FA1600499D3
:102040002000E3702161656103F0A4FC644B009CF7
:10205000596802230B5523000233DBB20093431E61
:102060009841019B621C9B5D80009B079B0F1E3764
:10207000D2B21843FFB2885419E70233DCB203230B
:10208000D55D009A564F561C00997A681D405354EE
:102090002800F6B203F0E4FC002801D004231D431D
:1020A000009B0233DBB200937B6827009D55FEE660
:1020B00006A9CD1D00212970D05D03310840991C6F
:1020C000C9B2575C342141438C464749DE1C614408
:1020D0000C004F62F6B2965D3602F7194F62191D79
:1020E000C9B2565C591D3604F6196662C9B2515C14
:1020F000494F0906C91989190F2726006162991DE0
:10210000C9B2515C283639403170D91DC9B2565C0C
:1021100019000831E662C9B2515C1F00090231435F
:102120001E000936E162F6B2965D0A333604314389
:1021300064267143E1622100DBB2D35C30310B7065
:102140000423274E009972680B3753546146264B7F
:102150002C31C9182A0003F0B7FC009BFFB20133F1
:10216000DBB20493009B0233DBB20193002831D130
:1021700008A807F031F9646A089BE41A002C25DDF1
:10218000FA239B00634325481900039307F076FA6E
:10219000224807F0CDF9039921480EF08FFF2A78E5
:1021A000736804995A54019A21129C54009A241479
:1021B0000332D2B29954009A0532D2B20192009AF7
:1021C0000432D2B29C54019B009370E610232A780B
:1021D00013432B70024B2A785B6804995A54F2E738
:1021E0009C060020B0010020981800204B32010806
:1021F0005D32010872320108562C0108DF280108FF
:102200008532010898320108AB320108BE3201085C
:10221000D0320108E3320108803DD512A406002027
:102220003032010837B5002401A809F09DFA104B9F
:1022300001A89D789C7009F09CFA012D02D0022D16
:1022400011D037BD0220FEF7CFFCFA21094B0A4C12
:1022500028331B7889002000994007F00FFA2000EE
:1022600007F066F9EDE72000FEF7BEFCE9E7C0469F
:102270009C06002098180020BC06002010B50A4BD0
:1022800000290DD0DA7001225960084808491A70F7
:102290005A7007F043F90749074807F03FF910BDA6
:1022A00059701970FBE7C0469C060020A406002068
:1022B000451E00082D1E0008BC060020004870477F
:1022C000B001002013B50D4807F0AAF90123002240
:1022D0000B4C0193200000920D2107F011F8200013
:1022E00007F027F8012802D1064807F01EF8064B30
:1022F00002220121200007F00CF813BDD4060020B3
:1023000018070020901F00200D23000810B5034877
:1023100007F003F8024807F00BF910BD180700207A
:10232000D406002010B5054C200007F079F90448C8
:1023300006F0FBFF200007F0FBF810BDEC060020C4
:10234000D0230020F8B5061C0C000DF0F1F90500B3
:102350000DF00EFA011C301C0DF026F80A21071CA6
:1023600028000CF017FB28000E0064210CF012FB73
:1023700008000A210CF028FA2023092801D80C4B68
:102380001B5C23702023092E01D8094B9B5D6370D1
:102390002E230849A370381C0CF0D4FE0DF0C8F9A8
:1023A0002023092801D8024B1B5CE370F8BDC0460E
:1023B000F83201080000204113B51E49041C0CF03E
:1023C00049FB002818D0802000F0FCFA1A4800F0E1
:1023D0006CFBC02000F0F6FA184800F066FB942071
:1023E00000F0F0FA164800F060FBD42000F0EAFAA2
:1023F000144800F05AFB13BD01A9201CFFF7A2FFEF
:10240000802000F0DFFA104800F04FFBC02000F001
:10241000D9FA01A800F053FB0C4800F046FB9420C9
:1024200000F0D0FA0A4800F040FBD42000F0CAFACD
:102430000848DEE7000004420233010813330108B4
:1024400025330108363301084A33010856330108A1
:10245000593301086B33010810B500F009FD322033
:1024600009F07DFE07215A2000F0D0FC041C012059
:1024700009F075FE07215A2000F0C8FC011C201C41
:102480000CF000FC041C5A2000F0E8FC0549201C5C
:102490000CF058FE0DF04CF90DF06AF902490CF001
:1024A00051FE10BD0000A040CDCCCC3D10B509F0D0
:1024B00056FE10BD73B5224C2249200007F02EF8BD
:1024C000FA212000490007F0D9F80020FFF72AFF81
:1024D0001D4C1E49200007F021F8FA21200000249D
:1024E000890007F0CBF800F04DF8194D23000122C8
:1024F0002800019400940A2106F002FF280001251B
:10250000012106F00EFF012009F029FE00F092FAE9
:10251000322009F024FE00F081FA322009F01FFE7B
:102520000C4E2B0030000195220000940D2106F086
:10253000E7FE29003000084B022206F0EAFE73BDD8
:10254000EC06002025230008D4060020C522000840
:1025500004070020180700200D23000810B5FFF71E
:10256000A9FFFFF779FFFFF727FF044809F0F7FD00
:102570000021034806F0D5FEFEE7C04688130000A0
:102580000407002037B50124002523000095220010
:1025900001941921054806F0B3FE0095019423002B
:1025A00022001821024806F0ABFE37BD6819002052
:1025B0007C190020F7B54F4C40000091C7B20121B3
:1025C0002000019206F0ADFE4B4D0121280006F0DF
:1025D000A8FE0021200006F0A4FE0021280006F03D
:1025E000A0FE08267BB20121002B00DB0021200089
:1025F00006F097FE013E0121280006F092FE7F00C2
:1026000000212800F6B2FFB206F08BFE002EE9D1C1
:102610000121200006F085FE0121280006F081FE40
:10262000200006F086FE3100280006F07AFE012721
:1026300008366B461B7839005BB2002B00DB0021AB
:10264000200006F06EFE3900280006F06AFE009BAE
:10265000013E5B00DBB200212800F6B2009306F0D9
:1026600060FE002EE5D10121200006F05AFE012176
:10267000280006F056FE200006F05BFE3100280020
:1026800006F04FFE012708366B461B7939005BB216
:10269000002B00DB0021200006F043FE390028005B
:1026A00006F03FFE019B013E5B00DBB200212800EB
:1026B000F6B2019306F035FE002EE5D1200001218F
:1026C00006F02FFE2800012106F02BFE200006F068
:1026D00030FE3100280006F024FE3100200006F014
:1026E00020FE2800012106F01CFE0121200006F03A
:1026F00018FEF7BD681900207C190020F0B54000D5
:1027000085B0C3B2AD4C00930133DBB2029120001F
:1027100001210392019306F004FEA94D0121280036
:1027200006F0FFFD0021200006F0FBFD002128003F
:1027300006F0F7FD08266B461B7801215BB2002BE3
:1027400000DB0021200006F0ECFD9D4F0121380048
:1027500006F0E7FD009B013E5800C3B2002138009F
:10276000F6B2009306F0DDFD002EE4D10121200039
:1027700006F0D7FD0121380006F0D3FD200006F059
:10278000D8FD3100380006F0CCFD012708366B4635
:102790001B7A39005BB2002B00DB0021200006F021
:1027A000C0FD3900280006F0BCFD029B013E5B0025
:1027B000DBB200212800F6B2029306F0B2FD002E33
:1027C000E5D10121200006F0ACFD0121280006F032
:1027D000A8FD200006F0ADFD3100280006F0A1FDA7
:1027E0000121200006F09DFD0121280006F099FD41
:1027F0003100200006F095FD3100280006F091FD23
:10280000082701366B461B7931005BB2002B00DBD9
:102810000021200006F085FD3100280006F081FD32
:10282000019B013F5B00DBB200212800FFB2019356
:1028300006F077FD002FE5D108260121200006F0E3
:1028400070FD0121280006F06CFD200006F071FDEE
:102850003900280006F065FD0097009B584D580090
:10286000C3B201212800009306F05BFD280006F0AA
:1028700060FD0028FAD0200006F05BFD002803D0A0
:102880000123009A1A430092013E00212800F6B26B
:1028900006F047FD002EE0D108273100200006F0A9
:1028A00040FD0121280006F03CFD3100280006F023
:1028B00038FD0121200006F034FD0196019B012125
:1028C0005800C3B22800019306F02BFD280006F043
:1028D00030FD0028FAD0200006F02BFD002803D0A0
:1028E0000123019A1A430192013F00212800FFB2FF
:1028F00006F017FD002FE1D108263900200006F070
:1029000010FD0121280006F00CFD3900280006F01A
:1029100008FD0121200006F004FD0297029B012121
:102920005F00FBB22800029306F0FBFC280006F0D3
:1029300000FD0028FAD0200006F0FBFC002803D0A0
:102940000123029A1A4302921D4F013E00213800D2
:10295000F6B206F0E6FC002EE0D13100200006F0D1
:10296000E0FC3800012106F0DCFC3100380006F004
:10297000D8FC2000012106F0D4FC3800012106F02B
:10298000D0FC3100380006F0CCFC3100200006F00D
:10299000C8FC3800012106F0C4FC2000012106F02B
:1029A000C0FC039B029A9A70019A5A70009A1A709E
:1029B000019B1802801880B205B0F0BD6819002094
:1029C0007C19002070B508260F2301000C25320069
:1029D00099430001C4B20A4327202943FFF7EAFDC7
:1029E00032002900224321432720FFF7E3FD70BD79
:1029F00070B509260F2301000D253200994300010F
:102A0000C4B20A4327202943FFF7D4FD320029002E
:102A1000224321432720FFF7CDFD70BD10B50020D4
:102A2000FFF7D0FF64242020013CFFF7E1FF002CDA
:102A3000F9D110BD10B53220FFF738FD3020FFF777
:102A4000C1FF0520FFF732FD3020FFF7BBFF01205B
:102A5000FFF72CFD3020FFF7B5FF0A20FFF726FD1A
:102A60002020FFF7AFFF0A20FFF720FD2820FFF707
:102A7000A9FF0120FFF71AFD0820FFF7A3FF01209F
:102A8000FFF714FD0120FFF79DFF0120FFF70EFD6A
:102A90000120FFF70BFD0620FFF794FF0120FFF751
:102AA00005FD0C20FFF78EFF10BD10B50400207847
:102AB000002800D110BD0134FFF79AFFF7E770B589
:102AC0000400051D20780134FFF792FFA542F9D1DB
:102AD00070BD00000122014B1A7070471F080020D2
:102AE0007047000010B543780400022B07D0032B79
:102AF00001D0012B06D1054806F092FD02E0034803
:102B000006F016FD2000FDF7F7FD10BD6C08002053
:102B100007B5FDF73FFE00216B466846198001911D
:102B2000FDF774FF07BD000010B50400FDF776FD4A
:102B30002378013B012B08D86368084819780123E2
:102B40001940074B197006F0ECFB0121054806F00F
:102B5000E8FB054806F0ECFC10BDC046D023002081
:102B60001E0800207C1B00205408002010B5012105
:102B7000044806F0D6FB044806F0DAFC034806F0E9
:102B8000D7FC10BD681B00203C0800206C0800200A
:102B900010B5044806F044FD0021034806F0C1FBCF
:102BA00010BDC046540800207C1B002010B504480E
:102BB00006F036FD0021034806F0B3FB10BDC04609
:102BC0003C080020681B002010B5044806F028FDD2
:102BD0000021034806F0A5FB10BDC04624080020D4
:102BE000901F002010B5FDF757FC10BD10B5040074
:102BF000FDF716FC0523E356013302D1FDF7D8FE9D
:102C000010BD0020FDF7F0FFFAE710B5FDF7B2FBAD
:102C100010BD10B5FDF76EFB10BD10B5FDF720FB24
:102C200010BD10B5FDF70EFB10BD000010B50A4C2D
:102C3000200006F0F5FCFA210122084B8900084823
:102C40001A7009F0B3FF074BC118200006F016FDFB
:102C5000200006F06DFC10BD840800202008002034
:102C600018FCFFFF88130000F7B508F0ABFD08F073
:102C700084FDFFF773FC4B4E4B49300006F04EFCD1
:102C80001921300006F0FAFC484C4949200006F0B2
:102C900045FC2000192106F0F1FC464C4649200075
:102CA00006F03CFC2000192106F0E8FC434C4449A6
:102CB000200006F033FC2000424906F0DFFC4249C8
:102CC0004248FDF7E7FD041E03D041480EF0F6F937
:102CD000FEE71420FEF7A6F83E492000FEF7B0F804
:102CE000FDF766FE3C4D3D49280006F017FCFA2131
:102CF0003B48890009F05AFF324BC118280006F002
:102D0000BDFC2000FFF792FFFEF7E6F801A808F0EF
:102D10002BFD0022334B01A81C781A70E4B208F096
:102D200028FD012C2DD1FDF75DFE071E29D10223C0
:102D30002D4D2B70FDF710FA2C4B38001978FDF74C
:102D400023FA08F035FD6423FE2158430BF03CFDC7
:102D50000CF00EFD011C2000FDF72EFA6868FDF74F
:102D600007FAFDF7FFF9390068702800FDF74EFEFD
:102D7000002806D11E48210006F0D3FA300006F0E4
:102D8000D7FB01A808F0F0FC1A4B1A78012A05D1EC
:102D900000221A7001A808F0ECFCB5E708F042FE2A
:102DA000F8E7C04624080020C92B00083C08002092
:102DB000AD2B000854080020912B00086C0800205F
:102DC0006D2B0008881300002C020020F401002065
:102DD0006F33010838020020840800202D2C0008E1
:102DE00018FCFFFF20080020EC0100201E08002036
:102DF000901F00201F08002013B501AC2200FFF730
:102E00007DFC637820781B02184316BD70B5040062
:102E10000D003220FFF74AFB29002000FFF7ECFFEE
:102E200004003220FFF742FB0020002C0CD02000D1
:102E30000DF03CFF054A064B0DF048F9054A064BDC
:102E40000DF0B6FB0DF0BEFF70BDC0467B14AE4763
:102E5000E17A943F666666666612714010B5E822B4
:102E6000FF21FFF7A7FB0A20FFF720FB10BD0000A2
:102E700070B50C4D0021280006F053FA0A4C0021D1
:102E8000200006F04EFA0A20FFF710FB280001216F
:102E900006F047FA0021200006F043FA2820FFF749
:102EA00005FB70BD7C190020681900200423084A26
:102EB00010B511780B431370D223064A9B00D358E8
:102EC000002B03D0DB68002B00D0984710BDC04614
:102ED0009C080020A00800200223084A10B51178A1
:102EE0000B431370D223064A9B00D358002B03D008
:102EF000DB68002B00D0984710BDC0469C0800201E
:102F0000A00800200123084A10B511780B43137064
:102F1000D223064A9B00D358002B03D0DB68002B3A
:102F200000D0984710BDC0469C080020A008002093
:102F3000064A074BD358FC3319780623022900D1DF
:102F40000B009121C90053547047C046A0080020CF
:102F50008C040000114B124A9A5C920703D5114A67
:102F60009A5C012A0AD9104A9A581100FE31097850
:102F7000002903D0FC3251680131516083210022C5
:102F8000C9005A5409495A5409495A54DB39585806
:102F900002329043585001207047C046A0080020DC
:102FA00089040000350400008C0400001C040000AB
:102FB0001B040000D223054A9B00D35810B5002BF8
:102FC00003D09B68002B00D0984710BDA0080020BC
:102FD00010B50020FFF7EEFF10BD10B50120FFF780
:102FE000E9FF10BD10B50220FFF7E4FF10BD10B5DA
:102FF0000320FFF7DFFF10BD10B50420FFF7DAFF55
:1030000010BD10B50520FFF7D5FF10BD10B5062087
:10301000FFF7D0FF10BD00001FB5084A084B02A9FA
:10302000D3589C2252009A5C48708A700D221878FE
:103030000A7004F090FFC0B205B000BDA0080020E7
:103040008C04000010B5104806F0EAFA0F4B104A45
:103050009A5C002A02D001210E4A99540E4A9A58CD
:10306000FC321278022A04D10C491E32585C024309
:103070005A54D22292009B58002B03D0DB68002BBD
:1030800000D0984710BDC046A00C0020A00800202A
:103090001C0400001B0400008C04000089040000D4
:1030A000D022802310B50A4C9200A1580B43A350A4
:1030B000084BE35C002B02D00020FFF7C3FF222166
:1030C000054AA35C0B43A354FFF732FF10BDC04673
:1030D000A00800201C04000089040000F0B5344C56
:1030E000344E85B0A35901900291FC331B78022B1A
:1030F00003D0314BDB6A0393984703F065FA051E52
:1031000005D0022003F08AFA002002F077FFA359CD
:10311000FC331B78012B18D103F064FA071E06D08C
:10312000002003F065F9002002F030FF3D0003F0BD
:1031300063FA002809D0002003F060F9002002F0B3
:1031400037FFFFF7F5FE05B0F0BD002DF9D1912254
:10315000D2001A4BA25CE35C002A1BD1002B02D0E8
:10316000174B019AE254019804F076F9E623A2592C
:103170005B00D05806F099FAEF239B00E358984281
:10318000DFD3104806F04CFA20230F4AA15C0B4312
:10319000A354D6E7002B02D0094B029AE2540298BE
:1031A00004F05AF9A359FC331B78022BECD1C8E781
:1031B000A00800208C040000603801081C040000F6
:1031C00045040000400C002089040000F0B5154CB7
:1031D000154E9A21A359154F1A001D0085B0FF32D4
:1031E000490059561878527BFC350097EB6804F07B
:1031F000F0FE022301220E4D390063550D4BE254BF
:10320000A3590D4A187804F0EFFE002808D00B4BA4
:1032100000205B6B039398479123625DDB00E254CF
:1032200005B0F0BDA00800208C040000880C002030
:10323000FA030000F9030000C80C00206038010800
:10324000F8B50E0015001C00070006F028FA0B4B1D
:103250000B4A18605F601E815D811C730823117822
:103260000B431370D223074A9B00D358002B03D083
:10327000DB68002B00D09847F8BDC04694190020A9
:103280009C080020A008002037B506F008FA6C461C
:103290000C4B0D4D1860200006F09EF8CE239B00CD
:1032A000EB1806CC06C31023084A11780B431370A1
:1032B000D2239B00EB58002B03D0DB68002B00D0FF
:1032C000984737BD90190020A00800209C080020D6
:1032D000F022F0B50025484C484B5200E3588021BD
:1032E0009D5418008322FC30D20049004560A15251
:1032F000434AFF39A154434A0600A554A222520072
:103300009D54843299521A001979FF3251715979BA
:103310008FB091719A1DD17F2622FF3299541A00E5
:1033200019002932FF32283181C981C281C981C285
:10333000013AFF3A11789C22520099541A003A211E
:1033400039321278FF315A54DA6B0F0032641A6C3A
:1033500004A972642C4A0126A554E32252009D540C
:1033600018780E71049504F009FE284BE554493B8A
:10337000E554224BE1580B00FC33DA6AF6239B003C
:10338000E250F923CA5D9B00E254F522204B9200E3
:10339000E554204BA218E6540233E318C1CAC1C356
:1033A00041CA41C3012602221B4B0295E6541B4B26
:1033B0000395E254B23BE358AB4204D05A68DB6851
:1033C000029201930393164B0B910693154B164AE9
:1033D0000793164B06A80893154B09930B00483327
:1033E0000A934B1D4C31FF330D9102A90C9302F04F
:1033F000B7FF0FB0F0BDC046A00800208C0400004D
:103400001A0400001B0400001C0400001D0400003E
:10341000E5030000E6030000F9030000FA030000E2
:103420000C0D0020C40C002003300008F80C002014
:10343000290D0020F7B5384C384E0500A3591F0060
:10344000FC373A78BC460192012A11D0002A03D0F9
:10345000022A58D0032013E0002807D11A0029338C
:103460003132FF32FF3303CB03C2F3E7012808D127
:10347000280003F0C3FA002802D1A359FC331D70C1
:10348000FEBD0320022DFBD1FA21F520890080002A
:103490003D7061182018C4C8C4C144C844C1190093
:1034A0001F48019A25544E310D78002D26D02C212D
:1034B00065464A439A18516E6832696315789A22B4
:1034C00052009D54174AA55C353AA5540432A150C8
:1034D0003A22FF329A5CFE239B00E254032301222E
:1034E0002354114BE2540025104BE554104BDB6A7A
:1034F00001939847FFF76AFE2800C1E701322C319B
:10350000042AD1D1EFE70320002DB9D1084B3D703B
:10351000DB6A01939847EFE7A00800208C040000C5
:10352000FA0300001D040000F90300001C04000061
:1035300060380108F7B50D0006F072F80C4E0D4F1B
:10354000336B019398470C4C0C4AE35929001878C7
:1035500004F04AFD002809D0E359726BFC33586926
:10356000019290479123AA7CDB00E254F7BDC0464C
:10357000603801088C040000A0080020C80C00205E
:1035800010B50E4B0E4A995C5D3A995426210D4AAE
:10359000FF319A58505C0C4958543A21FF31515C24
:1035A000F422920099540022084909485A540949C2
:1035B0005A540949FFF7BEFF10BDC046A0080020BD
:1035C0001D0400008C040000C3030000D1030000B0
:1035D000280C0020D2030000600C0020912210B5BE
:1035E000104BD2009A5C002A1BD00F4A995C493AD2
:1035F00099540E4A9A581100FC31C86AF621890084
:1036000058503A21FF31515CF9229200995400211F
:10361000074A08489954084A013199540749FFF765
:1036200089FF10BDA00800201D0400008C040000CC
:10363000E5030000400C0020E6030000740C0020AD
:103640000023F0B595B006920D2207001C000391EF
:1036500006A9521813700AAA13800293039B9C4276
:1036600001D315B0F0BD3D19287803F049FE039B46
:1036700000199842F5DC2878661C0238F6B2112849
:10368000EFD80BF003F8120029009200AD00FC0007
:1036900012014C016901BA01EEFFEEFFF501EEFFE8
:1036A000EEFF45025A0275028F02042003F0F0FE7D
:1036B00000280FD00421002003F0A8FE8C22B95D61
:1036C000E64BD200E61C02349954E4B2395DE44A78
:1036D000F6B299543400C1E7002306AA9373D3735A
:1036E0000BAD0CAA2B701370029B002B5AD1731ECA
:1036F00010A9FB184B60039BDA4801339B1B0B722C
:10370000D64B1B581800FE30007888729C20400071
:10371000185C48721800FF308679CE72407906AE88
:10372000087392204000185C4873EE20400018583F
:10373000109018780F23019206AA9B180E2200956C
:10374000921904F068FC06AB5873C043430712D1CA
:10375000C44AC24B06A99B58897B1A00FF3291715B
:1037600006A9C97B517192212A7849005A54FFF762
:103770002FFCFFF732FC002509E00D2306A95B189A
:1037800001221900032003F0C5FC0135EDB20CAB9A
:103790001E78052130000AF08DFFC0B28542ECD3BF
:1037A000A619F6B20123029394E7AC4AAD4B02345A
:1037B000D1580F22BB5D042013403632FF328B54A8
:1037C000443AFF3A9A401300E42252008B520022FE
:1037D0000AA9E4B203F09EFCFFF7FAFB260079E7A2
:1037E000072106AB5973BB5D10AD1A090A406A7018
:1037F0000F2213402B70221DE31CDBB2D2B2FB5C04
:10380000BA5C661D02341204E4B21B0213433A5D33
:10381000944C1343642253431193904B29001B593A
:10382000F6B21878049304F005FC072106AB587330
:103830000840884212D1894B2A781B592631FF3122
:103840005A5408315A541A006968FC32D1625163E3
:1038500026226978FF329954FFF7BAFB0D2306AA96
:103860009B181B780AA9012205200B7003F052FC5B
:1038700010237A497C4A885C03438B542AE7D2237D
:10388000764A9B00D358FF20002B03D01B68002BE7
:1038900000D098473F23069A0AA9134008700222D5
:1038A00006204B7003F036FC14E70D2506ABED182F
:1038B00003232B70BB5D0CA90B71E31CDBB2F85C1E
:1038C000231DDBB2FB5C00021B040343A01CC0B23F
:1038D000385CA61D03436420434310930023053442
:1038E000E4B211933B5D10AA13720C925D4B5B4ADC
:1038F000F6B2D358187804F0A6FBC3B22B70002898
:1039000000DAE7E60AA9012207200B7003F002FCA7
:103910002B78032B00D0DDE6FFF75FFBDAE60F2301
:10392000BA5D0234E4B21A4000D101324B4D4D4B26
:103930000820E958A43B5343FA22FC3192008B61E2
:103940009B18CB6100220AA903F0E4FB1023464A2E
:10395000A95C0B43AB543FE700220234E3B205936A
:103960000BACBB5D227020321A4044D16270DA0683
:1039700001D5012222700F221340A370394E374B1C
:1039800021009B591878049304F066FB431C30D047
:10399000324B9D59237804939C23049A5B00EA548C
:1039A0003A236278FF33EA542B00FC330793A37861
:1039B0002E4AD05C0BF026FF079B10A91864022347
:1039C0000B70049B8B70287804F0C5FA234B0C9085
:1039D0009B59021CFF33997940B24CB2A04200DAE5
:1039E0000A1C9A710AA90022092003F093FBFFF731
:1039F000EFFA059E6EE60122B8E70D2506ABED183D
:103A000003232B70BB5D10A90B70221DE31CDBB2DE
:103A1000D2B2FB5CBA5C661D02341204E4B21B0233
:103A200013433A5D0D4C1343642253434B600D4BDB
:103A3000F6B2E358187804F018FBC3B22B700028D4
:103A400000DA47E60AA901220A200B7003F062FBA4
:103A50001023054AA15C0B43A35459E7A00800209A
:103A6000610400008C040000890400009433010804
:103A70000A2003F00DFD002800D12BE60A210020CA
:103A800003F0C4FC1E2306AA9B1800221A80A31C64
:103A9000DBB2FD5CE31CDBB2F95C2D0209040D43D3
:103AA000231DB95DDBB20D43F95CFA23A61D053475
:103AB000E4B23A5D9B00534306AA1B1209069383A6
:103AC00010A80D4305F088FC414B424CE918CF2368
:103AD0009B00E3181B680D9A0093CE239B00E358CC
:103AE0000EA80C9105F044FC0F9B119A00931099BD
:103AF0000E9B0CA805F022FC0C980D9905F04EFCCD
:103B000002F098FE88230122DB00F6B2E254E1E5E0
:103B10000D2003F0BDFC002800D1DBE50D210020C5
:103B200003F074FC91232B4ADB00D35C043B012B94
:103B300000D8CFE502F0EAFDCCE5A31CDBB2F95CCE
:103B4000E31CDBB2FB5C09021B0419436423BA5D6E
:103B5000661D0434E4B21143385D5943553B1840A7
:103B600002F0EAFD0AA90870F6B20122112099E6D6
:103B70000E2003F08DFC002800D1ABE50E210020C3
:103B800003F044FCA31CDBB2F85CBB5D00021843ED
:103B9000261D114B0334E4B2395D1A68F6B202F007
:103BA00013FE97E5BA5DA31C261D0334DBB2E4B215
:103BB000F85C3B5D00021B04184364231043584328
:103BC00002F08CFE0AA90870F6B20122132069E601
:103BD000803DD512A008002094190020D022064B69
:103BE00092009A580120002A05D1044A985C0138B5
:103BF000431E9841C0B27047A00800208A0400000C
:103C0000F0B500251F0087B00CAB584C1E88584BF0
:103C10000392E5543B005A1E93415B421E400190C3
:103C2000029132003900534825800495059508F02B
:103C3000C8FF514BF2B2E254019B1B78A370019B69
:103C40001B785B09042B3CD0072B00D17FE00220BE
:103C5000022B34D1260004232700FF367371474B13
:103C6000FC37FB60FF237373019B03991B78444D62
:103C7000B37394235B00E154635904A89B6C7B618C
:103C8000029B1B78737598235B00E254394B3B63AE
:103C900003F0BAFD03001220002B10D12100049A7A
:103CA000FE310A83374905A86354013963548A23D6
:103CB000DB00E25003F0D0FA002806D0132007B052
:103CC000F0BD01232A496354C4E7059B002B01D1B1
:103CD0000020F4E706206359FF331856FFF79CF9DC
:103CE000254BE35C002B1ED0059B0F2B11D8264AD9
:103CF00005A90F2003F0BCFA0028DFD10F21029B99
:103D0000059A1B780A408B431343029A137073750C
:103D1000D5E7625905A94732FF3203F0A9FA002816
:103D2000CCD10A30CBE7625905A94732FF3203F004
:103D30009FFA0028C2D1942398225B00E054635973
:103D400052004733FF333B63059BA354B7E7002F73
:103D5000BED0002ABCD0F2B239000C4808F031FFC6
:103D6000054BE35C01332380B2E7C046A008002086
:103D70001C040000D809002037020000A20800201F
:103D80008C04000049040000B8090020A3080020AA
:103D9000F0B589B002ABDE1C0023494C494D3370AD
:103DA000635904A91A000870FF320700907948701F
:103DB00052798A701A00FC32106C526C48608A602A
:103DC000228818788A81404B320004F018F90122C9
:103DD0003E4BE2546359FF339A793D4BE2543278BB
:103DE00084263C4BF600E2543B4B3C4AE750A35937
:103DF000A3503B4AA35002F035FC002819D1635967
:103E0000FC331B78012B01D102F0B4FD02F0CCFD94
:103E100063590625FF335D57324B2700E65C0023CC
:103E2000FF3703937B79002B0CD0042B27D003237F
:103E300005E0A05902F076FD10230028DFD018001D
:103E400009B0F0BD284803F059FD002835D17B7B2F
:103E5000D022238002239200A1580B43A350234B6E
:103E6000E35C002B03D1D832A35C0133A354204B75
:103E700021789B6A1F48019398470023DFE703A836
:103E800003F0C2FC12230028D9D18323DB00E35CBA
:103E9000002B03D1184BE35C012B02D9039B013BA0
:103EA0000393E9B2104B3200039803F0D9FD0028C8
:103EB00003D12300FF335B7BCAE71123BFE7C04672
:103EC000A00800208C040000C00C00204504000065
:103ED0004604000047040000540400004C040000A5
:103EE0005C0400001D040000A80900201C04000060
:103EF00060380108A20800201A040000F0B591B053
:103F0000039002F061FB0E2600281AD1814C824DED
:103F10006359FC331B78012B0ED0E8206359400015
:103F20001A58002A15D02600FF367379002B1AD0B4
:103F3000042B1FD0032604E002F054FB002803D01A
:103F40000F26300011B0F0BD02F056FB0028E4D07F
:103F5000F6E7E4225200995A8422D200A25801398D
:103F60004A431A50DFE76D4803F04DFF002805D0A3
:103F70001126E6E7694803F07BFFF7E7E822737B49
:103F80005200238063590AAE9A5808A80A921A0070
:103F9000FF32927904AF32724622FF329B5CB372D9
:103FA00005F042FA635908991A00D932FF321268B3
:103FB00038000092EA2252009B58099A05F0D8F97D
:103FC0000DAB06CF06C3E622635952009A58012171
:103FD00072600022327522887172F282F0225200E1
:103FE0009A5C002A01D1317572721878D133FF338F
:103FF000009331004A4B4B4A04F04BF8061E1AD08E
:104000000B289ED1039B002B9BD092220026414B74
:10401000D2009958B14200D193E7D02020228000ED
:104020001C582243404C1A50200005F027FB20006A
:1040300005F07EFA85E7615926230A003A20FF320F
:104040000E789279FF30FF33CB5652B2095C3000C4
:1040500004F033F8635941B21F00FF335A7B334BEE
:10406000FC370093FB68300003F0B3FF63599621DF
:104070001A001E004900595618782D4BFF32527B0A
:10408000FC360093F36803F0A4FFF3239B00E2588F
:104090006359EE27FC339969BF008818EF21E0517E
:1040A0008900F8208C46800026586046D969891915
:1040B0002150F02160594900415C002906D1186A5D
:1040C0005B6A8218E25162469B19A3500023079352
:1040D000994217D007A803F0BFF81326002800D094
:1040E0002FE706200B4B134A9C5C5B59079AFF3362
:1040F0001856D6B2FEF790FFA41980B20826A04247
:1041000000D21EE7034A0C4BD05CFFF741FE0600CD
:1041100017E7C046A00800208C040000A809002072
:10412000300D0020BD0C0020100C0020600C002081
:10413000740C0020370200001D04000010B5114867
:1041400005F06EFAD02220230F4C9200A1580120D6
:104150009943A150FFF7D2FE002812D00B2810D0AF
:1041600009200A4BE358FF339A79094BE254094B73
:10417000E25C094BE254094BE05403F06DF9FEF7A1
:10418000E9FE10BD100C0020A00800208C040000E7
:10419000460400001A040000490400004504000021
:1041A000F0B591B00793454C454B059119590692CE
:1041B0000B00062205270490FF339A560726039228
:1041C000DF57033B5D68F0230A955B00CB5C002B57
:1041D00064D0A2235B00CB5C002B02D1E82252000A
:1041E0008B50002209AB1A700A00FE3212789446F6
:1041F000D2011A700A00FC3210781A78013846424F
:10420000704110260001B24302431A70E3225200AB
:104210008A5C002A03D02022187802431A70EE2309
:104220005B00CB580BA80B93634601264371FF2319
:104230008560234D06719B00EB5A4A1D8381214BFB
:10424000FF32EB5A4774C381039B03749C235B00CA
:10425000CB5C83740B780631C374FF310AAB01F079
:1042600027FE402309A930400E7880019E43079B1A
:1042700006430E70059A00930498069BFFF7C0FC56
:10428000061E01D00A2804D10020FFF737FE061EC3
:1042900007D02B59039AFF339A715F71300011B028
:1042A000F0BDE3222B59520098540A9AFC335A600D
:1042B00002F0AAFF0028F1D01326EFE78C040000DB
:1042C000A0080020FE03000070B5050000240120B6
:1042D000FF2D1AD12000FFF7ADF80D4B0D491A0044
:1042E000FC33FF32D96054715573947307F018FA98
:1042F00008220100084808F064FC07F0FBF90822D6
:104300000100064808F05DFC2000FFF7F7FD70BDD6
:10431000A0080020A2080020AE090020B609002055
:1043200030B5124B124C87B0E35C02AA1370114BEC
:1043300002ADE3581A00FF32917969705279A88171
:10434000AA701A00FC32116C526C03911878290083
:104350000192049203F0AAFED022022300209200D0
:10436000A1580B43A35007B030BDC0461D04000048
:10437000A00800208C04000010B50400074B0800C2
:10438000DB6B110022009847D022022304499200DF
:10439000885803438B50002010BDC0466038010888
:1043A000A008002013B5144B144C15482360F423C7
:1043B0005B00636003F022FA0023124A0193124B60
:1043C00001A9D3582061187803F0DFFD019BA0609C
:1043D0000E48E36007F054F8A0610D4802F094FE27
:1043E00020620C4801F0FEFFA0620B4802F0D4FFEF
:1043F0002063200016BDC046340D0020A419002003
:10440000B8190020A00800208C040000C01900206A
:10441000C8190020D0190020D819002073B5032333
:10442000041E36D0D023284D9B00EA5801239A421F
:104430002FD10168002904D0436824489AB208F0BB
:10444000C0FB6A460323224E1371A368694600939A
:10445000AB59187803F092FD1E4BEA5C353BEA54E9
:10446000AB591A00FC32516BFB229200A9503A2240
:10447000FF329A5CFE239B00EA540122164BA0698E
:10448000EA54164B9218EA5406F0ECFF002802D0CA
:104490001123180076BD206903F0A2F90028F7D196
:1044A000206A02F023FE1323051EF2D1A06A01F058
:1044B0008BFF14230028ECD0206B02F05FFF152344
:1044C0000028E6D02B00E4E7A0080020340D0020EF
:1044D0008C0400001D040000F9030000FA03000032
:1044E000020010B50320002A0BD0002909D00F23A9
:1044F000147B1C4006D0531CDB7F002B02D0002015
:10450000087010BD130028331878002802D101224A
:104510000A70F6E71720002CF3D10132D37F002B6D
:1045200003D102330B702000EBE70323FAE700000E
:10453000F0B5B3B013A807F017F90022D44B13A8B5
:104540001C681A6007F015F9002C00D1FFE0E3B2F7
:104550000393DB0672D5CF4CCF4D6359FC331B78E8
:10456000022B03D0CD4BDB6A02939847EE23CC4E4F
:104570009B00E158300005F081F8300004F0D8FFCE
:10458000EF23C84E9B00E158300005F077F830006B
:1045900004F0CEFF63591A00FC321278022A03D0CD
:1045A000C14AA25C002A11D015221CA918780A70F1
:1045B00003F0D1FCEF239B00BC4EE1581A90091880
:1045C000300005F05BF8300004F0B2FFE622B84B93
:1045D00061591B6852008B50B64A26AEA25C18A8DF
:1045E0003270736004F020FF635910AF1A00D932A3
:1045F000FF32126818990092EA2252009B58380044
:10460000199A04F0B5FE29AB06CF06C38423DB005C
:10461000E358F022B36001237370635952009A5C2F
:10462000002A00D172701878310003F0A0FC994B79
:104630009D4A9A5C002A01D19F495A54039B1B074B
:1046400056D59E4B934C5A68934E04920A215A5E5B
:104650001F890692A2591B7B926C5BB20992892238
:1046600005930023D200A3540699954A1593A152AD
:104670000599944AA1545432A25C93496254934AD6
:10468000A352934AA354934AA3500432A354924A88
:10469000A354924AA3540232A350914AA354914A7C
:1046A000A3500432A3547D4BDB6A029398477D48A4
:1046B00004F0B6FF3900049801F0A6FE824B051EF7
:1046C0000A93824B02960C93814B0D93814B079377
:1046D000814B0B93814B0E93814B0893814B0F932E
:1046E00000D111E1804B069AE252059A0233E2545E
:1046F000039B5B071DD5674C674BE358FC331B7866
:10470000022B03D0654BDB6A02939847FEF710FC3F
:104710000220694BE05402F09FFE634BE35C002BE8
:1047200002D00122714BE2542023714AA15C0B4359
:10473000A354039B9B0703D506210520FEF7CEFC5F
:10474000039BDB0703D504210320FEF7C7FC02F01F
:10475000F3F9674D4F4C625D930667D5D021002376
:1047600064488900235463580290180602D58220B9
:104770008343635005231A4200D116E30C2002F054
:1047800087FE002800D110E3635DDA0700D50CE353
:104790005B0700D409E3D02202239200A158994379
:1047A000A150D0239B00E358002B2BD1675D013330
:1047B0003A001A4002D03900994361550421635DE3
:1047C0000B4201D08B436355012302996354002AA5
:1047D00005D0D1239B00E35847481B68984704261F
:1047E000374209D0454802F05FFE02F089FE0028FA
:1047F00002D0635D1E43665501F054FF2022635DC5
:1048000093436355D0239B00E358002B0BD126AE76
:104810003000337002F05EFD3378002B03D010239C
:10482000625D134363550123029AA3540822635D1A
:10483000134207D093436355D1239B00E35830487C
:10484000DB6898471026635D33420CD0072326A807
:10485000037000234370D1239B00E358DB68984723
:10486000635DB34363550222635D134207D09343F4
:104870006355D1239B00E35822485B6898479123F6
:10488000DB00E35C022B01D1FEF7A0FC33B0F0BDEE
:104890009C080020A00800208C040000603801085B
:1048A000280C0020400C00201C040000A00C00205C
:1048B000901900201D0400004504000094190020F8
:1048C0003204000034040000350400002604000017
:1048D000290400002C04000031040000360400000C
:1048E000240400003C0400007E0400001B040000BF
:1048F000890400008A040000E40C0020F80C002069
:104900000C0D0020C40C0020029BE3580693FC33DE
:104910001B78012B0CD101F065FE061E19D0280072
:1049200001F066FD280001F031FB0423C04AA354C6
:10493000049B1B78580901380693062800D926E203
:1049400009F0AEFE130025029C0025029900250205
:10495000120201F051FE0028EAD0300001F04EFDB5
:10496000300001F025FB0523E0E7102F06D80121D8
:10497000B04AB14BD154FEF793FBB9E6049B1CAD92
:104980001C93029BFEB2E3582E710493F023049A09
:104990005B00D35C002BEAD106F0C2FE2A000100C6
:1049A000FF2002F0DBFF00285DD1AA7AE97A12022B
:1049B00009040A43697A029B0A432621E358FF311E
:1049C0005A64EA689A642A7C5206520F5A542A7C26
:1049D00007311207120F5A5408315A5419006A7CD1
:1049E000FC31002A3DD08A61FA2288699200424354
:1049F000FA2080008A611218CA61EF220025520055
:104A00009D541AA9953A113E0E710EA8FF3A12183C
:104A100018781A9203F0CDFA029B0221E258F02393
:104A20005B00D154012002F033FDA84203D00121E4
:104A3000280002F0EBFC7F4C804BE35C002B00D1A4
:104A4000ABE18923DB00E35C002B02D00020FEF702
:104A5000F9FA20237A4AA15C0B43A354FEF768FAC3
:104A600046E60122BFE7012002F012FD0028E2D055
:104A700001210720DDE70123724AA3543A226D4E3B
:104A8000029BFF32F35816A99A5C8A708522D200E5
:104A9000B25C4A700D2218780A7003F05CFA3A0092
:104AA0000D3A1490131C120400D50023149A1BB263
:104AB00012B2934200DD5AE70B2F00D857E7FF22CE
:104AC000049B26AD2693604B28002F9330AB2F71AB
:104AD0001A7003F03DF9002800D048E75B4BAA6844
:104AE0001AA92800F250FFF7FBFC002800D03EE78F
:104AF000029B0400F358AD681A0015904E32911CC9
:104B00000968A94222D1107800281FD02C206043C8
:104B1000181802004F321478C26E126815921A00EB
:104B2000FC321278022A03D10320424A0A9D5055D2
:104B30001AAA1278032A00D019E726AA107B60224D
:104B4000104200D013E709915F3A04E001342C329F
:104B5000042CD4D100220492142216A918780A70C9
:104B600003F0F9F9334A149081B202981AAB105845
:104B7000EF2252001B78825C2F4E042C44D8200078
:104B800009F07AFD033D393B2E00042526AFFA8952
:104B900015AB280002F046FE002839D0254B072827
:104BA0002FD108229A55029A9B58EF2252009A5C04
:104BB000002A0FD106991F3291430A00A02909D17A
:104BC0004532FF329958FA6A914203D1E32201211A
:104BD000520099548723174A1599DB00D150CAE631
:104BE0000325012AD2D1013D002BCFD0033B5D42EA
:104BF0005D410135CAE70625C8E70725C6E7052553
:104C0000C4E70A22082801D001220A4B9A55E1E79D
:104C1000159B00972A000999200002F087FF054B99
:104C2000002815D00238421E90410B309855A2E65C
:104C300035040000A0080020250400001C0400002A
:104C40008904000024040000D80A00203C0400006D
:104C50000C9A04990D9C99543A7B9855D106C90F2A
:104C600019550799159C58508621C9005854083188
:104C70005C5092060E99D20F5A549E4958540331F3
:104C80005A540A9A9A5C012A03D802995B58FC3359
:104C90005860049B984C26AD012B19D1013308991B
:104CA0006354964BE15C2B7B012A05D8012901D185
:104CB0009B0601D502F0B8FA1AAB187803284ED833
:104CC00061270EABFF188E4E09F0D6FC1E35442529
:104CD0001F210698029B88430100E320E35840000F
:104CE000A0290CD19F391954DE31FF31595C0029BC
:104CF00003D1E531E86AFF3158500123CFE70021A5
:104D00001954089BE154CCE7297B059A0907090F40
:104D10002AA8FEF795FCFB7FA3556B6A0493049ABF
:104D2000079BE25030AB1A788623DB00E254012364
:104D30000B9AA35408E0297B059A0907090F2AA8B2
:104D4000FEF77EFCFB7FA35502236E4AA15C0B435A
:104D5000A35470E630AB1978059A686AF0E701232E
:104D6000A355FEF79DF9EFE7674E04997D1EAAB2A1
:104D70000131300007F025FF0323644AA3540022C9
:104D8000634BE254634BE6500433E554DCE7012205
:104D90005F4BE254FEF784F94DE6029BE358FC3387
:104DA0001B78022B00D054E650E6635D5B0712D5FA
:104DB0000120D02602F06CFBB600002835D001207F
:104DC00002F038FB002802D18323DB00E0540223E9
:104DD000A2599A43A251615DCB0700D4E1E4474B4D
:104DE000E35C002B01D0032B2AD18322D200A05CEC
:104DF0009222494B5200E3589A5C904209D28A07AA
:104E000055D5FC331B78002B03D0444BE35C002BBF
:104E10004DD1434804F004FCD02220239200A15835
:104E20009943A150FEF796F8BBE4052002F030FB51
:104E30000028CCD1062002F02BFB0028C7D1CAE7FE
:104E4000012B34D1374BE25C002A00D1A9E436486B
:104E5000364E235CA75D0390BB4205D20022890732
:104E600002D58922D200A25CEF212B4E4900A05925
:104E7000415C00293BD1002A23D1BB4217D2013328
:104E8000039ADBB2A354DB0711D5212326A90B70AB
:104E90001833FF33C35C8B700300FF339B794B7077
:104EA000007803F058F8A3591C90FF339871202222
:104EB0000020635D934363551A4BE054FFF73EF9BE
:104EC0006FE48927FF00E65D002E0BD1022326A99F
:104ED0000B71174B00789B68269303F04FF8154B26
:104EE000E655E654039BE25C134BE25491E7002A3B
:104EF000DDD08EE745040000A00800204404000037
:104F00002704000089040000D80A002024040000BF
:104F1000250400002C0400008C040000350400006F
:104F2000100C00201B0400001A04000019040000EB
:104F3000A41900201C04000049040000F0B58BB047
:104F40000700019100920323002800D158E10029B5
:104F500000D155E10268002A00D151E14268002ADF
:104F600000D14DE18268002A00D149E1C268002ADF
:104F700000D145E1009802F0EAFF0923002800D1A2
:104F80003EE13800B24902F0E1F9F422B14D52009D
:104F90002800002107F02AFEAF4CB04A0021200073
:104FA00007F024FE0120AE4B0022E054AD4BAE4E84
:104FB000E054009BA5512B702B00FC331A70EE239C
:104FC000AA4A5B00EA5006ADCF3BFF3B29000098A0
:104FD0002B7002F0C0FF0590421E904146220A212C
:104FE000A359FF32985429701878290002F0B3FFB2
:104FF0000621A3592970187129000590187802F02C
:10500000AAFF0F22A35929005871059018782A7019
:1050100002F0A1FF1022A359290018610590187809
:105020002A7002F098FF1122A359290058610590B7
:1050300018782A7002F08FFF1222A3592900986174
:10504000059018782A7002F086FF1322A3592900D0
:10505000D861059018782A7002F07DFF1622A359B6
:1050600029001862059018782A7002F074FFA3597D
:1050700029009A1DD0771722059018782A7002F01F
:105080006AFF1822A35929009862186305901878BE
:105090002A7002F060FFA35905901A00C0B22C32AA
:1050A000107010721D22290018782A7002F053FF28
:1050B000A35929001A00383210701E220590187862
:1050C0002A7002F048FFA35929001A0039321070E3
:1050D0001F22059018782A7002F03DFF0590A35911
:1050E000059A2900DA63202218782A7002F033FF2B
:1050F0000590A359059A29001A640B2218782A7082
:1051000002F029FFFF239B00E0520C232B70A359D0
:1051100029000590187802F01EFF554B0590E052CB
:1051200006210120A3590A255A1DD07719731900A9
:10513000FC310A009D60CD60043D0D741D6908A915
:1051400055615D6995619D69D561DD6915621D6A6D
:1051500055629222520098540022050018780A7174
:10516000089202F00BFFFEF7B3F8A35900211800D4
:10517000FD3002001570D12228009200019DA75039
:105180000432A5503B4A02AFA1544A3AFF3AA0501C
:10519000753AFF3A9950043299503748374904F02C
:1051A000BDF93749374804F0B9F93749374804F0B1
:1051B000B5F93749374804F0B1F9A5593800D53564
:1051C000FF3504F031F90CCF0CC5D323324A9B00D4
:1051D000E250324A0833E250314A0833E250314A51
:1051E0000C3BE250304D314A0833E2502B683048D6
:1051F000009398472F4806F027F9002803D0112381
:1052000018000BB0F0BD2C4802F0B8FA0028F6D117
:105210002A4801F059FF13230028F1D1A0594C303E
:1052200002F03EFB071EEAD16B690093984707F036
:10523000B7FCA359FD331878AB6D00939847EB6A20
:105240000093984701221E4BE2543B00D8E7C0462A
:105250000D300008340D0020A00800209404000048
:105260001A040000190400008C040000000300016F
:10527000FE03000089040000100C00203D410008DE
:1052800081350008280C0020DD350008400C002086
:1052900045300008A00C0020893200084132000887
:1052A000D92E0008AD2E000860380108052F00082F
:1052B000EC0B0020EF2F0008E52F0008F92F000865
:1052C0008A040000D0230020014A9B00D050704780
:1052D000A0080020F0B52D4B0C002D490027CB581D
:1052E0008BB01A00FC325668019002AA0396951CF6
:1052F0005A792A70187902AA033210700497032091
:10530000BC423CD0DD37FF37DF5905A805970027A1
:1053100007711F00FE373F788660FF264771B60091
:105320008E5B86811B4E895BC1811900FF318E79AE
:105330000674497941749C214900595C81741B7839
:105340002900C37403AB00F0B3FD00202856FDF71D
:1053500063FE607004A801F07FFF03001320002BA0
:105360000DD104980F280CD86378984209D81A1ADE
:105370002270019A1018834280414042C0000BB055
:10538000F0BD002308202370F9E7C0468C0400001C
:10539000A0080020FE0300001FB504000320002C1D
:1053A0002ED02078352800D9D4E009F065F91B21EA
:1053B0002B2F32353A40D3D3D3D3D3D3D3D3D3D374
:1053C000D3D3D3D3D3D3D3D3D3D3D3454A545B632B
:1053D00069726F757A80868C92989DA8A3ADB3B9D7
:1053E000C3C0D3C85D4A5E4BD358FC331B7805E07D
:1053F0005B4B5A4AD258F0235B00D35C23710020E8
:1054000004B010BD06F076F96060F8E706F088F9A0
:10541000FAE706F09BF9F7E7504A514BD358FE33B1
:10542000E4E74E4A4E4BD3585B6C6360E7E74B4A68
:105430004B4BD3589B6CF8E7484A494BD358FD3344
:10544000D4E71C2302A90B70444A454BD358187863
:1054500002F081FDD8E7414A414B0434D358293347
:10546000FF3304E03D4A3E4B0434D358283306CB87
:1054700006C4C4E7394A3A4B0434D3583133EFE712
:10548000364A374B0434D3583033F0E702A91A2395
:10549000D9E702A91923D6E7314B304AD2589223D3
:1054A000AAE72E4A2E4BD358FC335B69BDE72B4A43
:1054B0002B4BD358FC339B69B7E7284A284BD3586A
:1054C000FC33DB69B1E7254A254BD358FC331B6A13
:1054D000ABE7224A224BD358FC335B6AA5E71F4A4D
:1054E0001F4BD3585B7989E71C4A1D4BD358FF33B8
:1054F0009B7983E7194A1A4BD3581B797EE7174AE1
:10550000174BD358FF33EDE7144A154BD358FC33F0
:10551000DB688AE7114A124BD358FF335B7B6DE798
:105520000E4A0F4BD358FC335B6C636067E7FEF7A2
:1055300039FF69E7094A0A4BD3581B6CF5E7074A5C
:10554000074BD258EE235B00D358636002F0CAFDCC
:10555000A06054E7200001F0BDF851E7A00800204A
:105560008C04000070B5040086B00326002877D0B4
:10557000D023AA4D9B00EB58023E9B0770D40078C5
:10558000342800D900E209F08BF835003A004300D6
:105590004A004E00520058005D0062006E00780024
:1055A0007D00820087008C00910096009B00A00087
:1055B000A500AA00AF00B400B900BE00C300C80037
:1055C000CD00D300D900FF01E300FA000D01360140
:1055D0005D014F0162016B01710177017D01830162
:1055E00089019A01C101B001D101D801DF01E501B2
:1055F000EA01F1012079FDF71DFF060038E023796B
:10560000022B34D0864AA958F02252008B5404E071
:10561000606806F05DF8002829D1002628E060685F
:1056200006F06CF8F7E7606806F07EF8F3E77C4B6D
:105630002279EB58FE331A70EFE7794B6268EB582A
:105640005A64EAE7764B6268EB589A64E5E761686A
:1056500000290CD0002002F037F911260028DCD0F8
:10566000300006B070BD616801200029F3D1032627
:10567000FDF7B3FCFDF7ACFCF2E7616802200029FE
:10568000E9D1F4E7616803200029E4D1EFE761681C
:1056900004200029DFD1EAE7616805200029DAD17A
:1056A000E5E7616806200029D5D1E0E761680720B9
:1056B0000029D0D1DBE761687F200029CBD1D6E774
:1056C000616880200029C6D1D1E761688120002966
:1056D000C1D1CCE7616882200029BCD1C7E76168ED
:1056E00083200029B7D1C2E7616884200029B2D1A4
:1056F000BDE7616885200029ADD1B8E761688620E3
:105700000029A8D1B3E7616887200029A3D1AEE7BB
:105710006168882000299ED1A9E761688920002955
:1057200099D1A4E761688A20002900D093E79EE719
:1057300061688B20002900D08DE798E7384B2079ED
:10574000EB58FD331870374B9B6D0193984764E716
:105750003A22237A324E03A90B70AB59FF329A5C7E
:1057600018784A70072202F019FC002800D17EE761
:10577000AB592933FF33043406CC06C34DE73A2234
:10578000237A274E03A90B70AB59FF329A5C187825
:105790004A70072202F002FC002800D167E7AB59EB
:1057A0002833E8E73A22237A1D4E03A90B70AB5940
:1057B000FF329A5C18784A70072202F0EFFB00284B
:1057C00000D154E7AA59043413003133FF3303CC1A
:1057D00003C33C3B1B78022B00D01EE7DF33FF33B3
:1057E000D35C002B00D118E70E4BDB6A019398477E
:1057F000FDF7ECFC11E73A22237A094E03A90B705E
:10580000AB59FF329A5C18784A70072202F0C6FB47
:10581000002800D12BE7AB593033ACE7A0080020BB
:105820008C04000060380108636804A90493012314
:105830000B71574BEB58187802F0C2FB002800D0D0
:10584000EBE614E7636804A904930023F0E72379E7
:105850005A1E0E2A00D90AE74D4AA9589222D4E6C8
:105860004B4B6268EB58FC335A61D6E6484B626892
:10587000EB58FC339A61D0E6454B6268EB58FC3339
:10588000DA61CAE6424B6268EB58FC331A62C4E63E
:105890003F4B6268EB58FC335A62BEE623793C4CBE
:1058A00003AE33702B5906221878310002F076FBD4
:1058B000002800D1DBE62B5932785A71ADE69C22E4
:1058C0002379334C03AE33702B5952009A5C18780D
:1058D000B2703100052202F061FB002800D1C6E65B
:1058E0002B593278FF339A7197E62379284C03AE0F
:1058F00033702B590A221878310002F04FFB002830
:1059000000D1B4E62B5932781A7186E62379204CFF
:1059100003AE33702B5909221878310002F03EFB98
:10592000002800D1A3E62B59FF33C5E7184B626866
:10593000EB589A60FC33DA606FE6154B2279EB582E
:105940001A73FF335A7368E6114B6268EB58FC33E5
:105950005A6462E60E4B6268EB581A645DE6606852
:10596000002800D183E6FEF759FD46E6A379012B16
:1059700000D97CE6064B6168EA58EE235B00D15003
:10598000606801F025FF68E6200000F0AFFE34E615
:105990008C040000D023F7B52C4D9B00EB5804007D
:1059A00001209B0724D4E2781530032A20D82C2329
:1059B000274E5343AA59D31822004C3383CA83C3BA
:1059C00083CA83C303CA03C32278E378002A10D0B2
:1059D000204AA168019201AAD05C01F075FF00285D
:1059E00005D1E078616802F01FF9002813D011207A
:1059F000FEBD194AA1680092184A01926A46D05C1D
:105A000001F062FF0028F2D1E37801AAD05CE168DE
:105A100001F05AFFE9E76378012B07D12C20E378E6
:105A20005843AB594C30181801F076F82C22E17825
:105A3000AB594A439B180122DB6E52421A60FDF7B4
:105A4000C7FAFDF7CAFA0020D2E7C046A008002036
:105A50008C040000808386898184878A8285888B74
:105A6000D023F0B5164E9B00F458022389B01C4099
:105A7000013B002C20D1153303281DD82C25114FB4
:105A80004543F3595B194E331A781623002A13D075
:105A900020222100684607F0A9F86B46F059451905
:105AA0004C3507CB07C507CB07C506CB06C5FDF7A9
:105AB0008FFAFDF792FA2300180009B0F0BDC04636
:105AC000A00800208C040000F0B5030003273B4031
:105AD00087B014001A000293D0231C322C4E22707F
