:020000040800F2
:10000000005000200DC60008BDC200085DC60008F3
:1000100000000000000000000000000000000000E0
:100020000000000000000000000000005DC60008A5
:1000300000000000000000005DC6000881B000085C
:100040005DC600085DC6000891BB00085DC60008DB
:100050005DC6000815B6000825B6000835B60008CC
:100060005DC600085DC600085DC600085DC60008E4
:100070005DC600085DC600085DC600085DC60008D4
:100080005DC600085DC600085DC6000800000000EF
:100090005DC600085DC600085DC600085DC60008B4
:1000A0005DC600085DC600085DC600085DC60008A4
:1000B0006DC500085DC60008000000005DC60008B0
:1000C0000448054B10B5834203D0044B002B00D0ED
:1000D000984710BD8004002080040020000000002C
:1000E00006480749091A8910CB0F591810B549104D
:1000F00003D0044B002B00D0984710BD8004002093
:10010000800400200000000010B5074C2378002B6D
:1001100009D1FFF7D5FF054B002B02D0044800E0C2
:1001200000BF0123237010BD8004002000000000E8
:10013000F82E0108054B10B5002B03D004490548E3
:1001400000E000BFFFF7CCFF10BDC046000000007C
:1001500084040020F82E01080022014B1A70704719
:100160008E050020014B18787047C0468E05002090
:1001700010B5034C034922780CF027FA207810BD03
:100180008E0500209C04002030B5094D00222B78FC
:10019000EF2B0AD8074CE054581CC0B22254DA1C8A
:1001A0000233D2B2DBB22A70E154100030BDC04637
:1001B0008E0500209C04002070B50F4D06002C78A1
:1001C000081C0023EE2C15D80C490FF025F80FF071
:1001D00019FB02210A4A631CDBB2165500B2D15446
:1001E0006318DBB20112D154231D0334DBB2E4B235
:1001F0002B701055180070BD8E0500200000C842FD
:100200009C040020F8B5002406000D0023000F27F1
:10021000A54203D1094810F0C7F9F8BD002B02D060
:10022000064810F0C1F9315D0548013410F0BCF901
:1002300023003B405A425341DBB2E9E7591E010813
:10024000DB24010810B5012803D1034810F0ACF9F4
:1002500010BD0248FAE7C046FC210108332201081C
:10026000F7B50400417827001C4810F09DF9A61C42
:1002700009371B4D31782800013610F095F9BE4240
:10028000F7D1184F2600380010F08EF9617A164821
:1002900010F08AF9230011330A36019331782800CF
:1002A00010F082F9019B0136B342F7D1380010F00B
:1002B0007BF9617C0D4810F077F9A17C280010F0E3
:1002C00073F9E17C280010F06FF9217D280010F00F
:1002D0006BF9074810F068F9F7BDC046BD21010869
:1002E000D0210108591E0108D6210108E921010881
:1002F000581E01080B7870B5050016001448154CFF
:10030000012B07D0002B1AD0032B1CD010F04CF976
:10031000114802E010F048F9104810F045F92000AB
:1003200010F042F90E4BAA00D1580E4810F03CF9DB
:100330000B2D03D131000C4810F036F970BD10F0D0
:1003400033F90A48E9E710F02FF90948E5E7C04614
:10035000E01E01084B1F0108EA1F0108161F0108D3
:10036000440000201F20010831200108801F0108DF
:10037000B51F010870B505000878160001381D4B3F
:100380001D4C092830D80EF0E1F9052F2F1B252A26
:100390002F2F2F20180010F007F9184810F004F93B
:1003A000200010F001F9164BAA00D158154810F0A2
:1003B000FBF80B2D03D13100134810F0F5F870BD98
:1003C000180010F0F1F81148E8E7180010F0ECF808
:1003D0000F48E3E7180010F0E7F80E48DEE71800D2
:1003E00010F0E2F80C48D9E7180010F0DDF80B48DF
:1003F000D4E7C046492001084B1F01087F200108AF
:10040000440000201F20010831200108B420010809
:10041000E92001081E210108532101088821010853
:10042000036810B51B780400002B17D00523C356B2
:10043000002B12D1114810F0B7F8114810F0B4F8A1
:1004400023681048D96910F0AFF80F4810F0ACF8E5
:1004500004210E48615610F0A7F810BD074810F0AF
:10046000A3F80B4810F0A0F823680A48D96910F0E7
:100470009BF8054810F098F8EFE7C0465B1E0108AE
:10048000901E0108981E0108581E0108AE1E0108A2
:10049000C41E0108CB1E010870B503788AB00400A1
:1004A000494E4A4D002B0AD1494810F07DF8637837
:1004B00028009B00F15810F077F80AB070BD45484D
:1004C00010F072F8637828009B00F15810F06CF877
:1004D000E168414810F068F8404E300010F064F8D0
:1004E00000F0E6FB3E4B195C3E4810F05DF8300032
:1004F00010F05AF8217C3C4810F056F8637C002B31
:1005000011D03A4810F050F8237A012B43D1637A86
:100510003749002B00D13749374810F045F8617C46
:100520006069FFF76FFE300010F03EF80A21334893
:10053000615610F039F81E2301AD28002B7004F02D
:1005400077FB002807D10C23627E2D4853436A684D
:10055000995810F029F818212A48615610F024F80B
:10056000232328002B7004F063FB00281FD12648AA
:1005700010F01AF800F074FC092808D80123834011
:10058000224C1C400BD183225200134213D120482D
:1005900010F00AF808E01F4810F006F8BFE76B6893
:1005A0001D48198810F000F830000FF0FDFF3000F2
:1005B0000FF0FAFF81E76B681748195B02340FF000
:1005C000F3FF0A2CF7D1EFE7000000201F200108FD
:1005D000652301089B230108D1230108591E010846
:1005E000D724010803240108152401082724010841
:1005F00061230108602301083624010853240108FF
:10060000682401087B2401088D240108F9020000F8
:10061000A2240108462401089C240108F0B587B0F3
:100620006A460C00274B050043CB43C243CB43C271
:100630002378254F254E002B0AD125480FF0B4FF13
:10064000637830009B00F9580FF0AEFF07B0F0BDA3
:1006500020480FF0A9FF637830009B00F9580FF095
:10066000A3FFE1681C480FF09FFF10236A46E35682
:100670001A489B0099580FF097FF297818480FF0F7
:1006800093FF6B78002B06D016480FF08DFF69782A
:100690006868FFF7B7FD144D28000FF085FF0821AB
:1006A000124861560FF080FF0921114861560FF082
:1006B0007BFF0A210F4861560FF076FF28000FF0EC
:1006C00073FFC3E7801C0108000000201F20010801
:1006D0006A220108A0220108D62201080823010885
:1006E0001A2301082C230108591E0108532401086C
:1006F0003C2301084E23010870B543780400022B07
:1007000009D01948032B03D01848012B00D11848F1
:100710000FF04AFF70BD416816480FF045FF617D3C
:1007200015480FF041FF15480FF03EFF200006214D
:100730001630FFF767FD124D28000FF035FFE16816
:1007400010480FF031FF217C0F480FF02DFF1223CE
:10075000E15E0E480FF028FF14210D4861560FF09E
:1007600023FF2800D4E7C046ED1D0108261D01081F
:100770005C1D0108921D0108B91D0108CB1D01086F
:10078000591E0108DA1D0108532401083C23010801
:100790004E23010810B5034B195C03480FF004FF0A
:1007A00010BDC046D7240108231E0108F8B5070074
:1007B0000D0014000B4E30000FF0F6FE39000A4811
:1007C0000FF0F2FE6B78AA78E97808480FF0ECFE9B
:1007D0006378A278E17806480FF0E6FE30000FF06B
:1007E000E3FEF8BD981C0108CF1C0108E81C0108B5
:1007F000071D010870470120704701207047000065
:100800000A2330B587B001AD28002B7004F010FE2C
:100810000400054B2A691B682900DB699847601EA4
:100820008441604207B030BDB005002070B5134B65
:100830008CB01B6803AC9B78114A5BB2114E002848
:100840000DD0012123713368200011702170DD6902
:1008500004F0EEFD22692100A8470CB070BD01AD87
:100860002B7101236871200023702371019204F021
:10087000C5FA336828001B6A9847EEE7C4050020D4
:10088000A4000020B0050020012370B5040010482A
:100890000025037063784370A3788372E368C360B4
:1008A000E37803762369437623794372094B1B6807
:1008B0005B6A9847084BAA00D358002B04D05B69A9
:1008C000002B01D0200098470135042DF2D170BDD6
:1008D000E0000020B0050020B4050020F0B53B4E3C
:1008E0003B4B0A0031603B49046819603A493B4F71
:1008F00059603B49386099603A498BB0D9603A49B0
:1009000012780C604468C0684C60384CC8608C60D9
:10091000002437480470180003F05CFFA04251D156
:10092000FFF76BFF01AC00282AD13B681B69984791
:100930001D23237033682000DB780025237104F029
:100940005DFA05232370336820005B78237104F07F
:1009500055FA3368187904F0E1FE04F0FFF801233A
:100960002000237004F064F9A84206D12379AB4239
:1009700003D13B681F485B69984728000BB0F0BD66
:1009800002232000237004F053F91A4D6168681C9B
:1009900008220BF01AFE03232000237004F048F90C
:1009A00028006168082209300BF00FFE04232000A4
:1009B000237004F03DF928000422113061680BF027
:1009C00004FEB5E701256D42D7E7C046C405002007
:1009D000D805002089080008C90C0008B0050020CF
:1009E0007D0D0008110B0008C8050020F507000860
:1009F000AC050020A400002010B5024B1878FFF7CA
:100A000015FF10BDA4000020012310B58AB001AC71
:100A10002000237004F00CF90023984203D12379BD
:100A2000581E8341DBB218000AB010BD10B502F0A9
:100A300021FD002806D1FFF7E7FF012803D0FFF7CB
:100A4000DBFF012010BD024B1B68DB689847F9E70C
:100A5000B4050020F0B587B005000E00FFF7D4FF05
:100A6000012806D0254B1878FFF7E0FE0120404210
:100A700031E0234C2368DB689847002806D02268C1
:100A80002B7812789A4201D0002BEFD11D4F01AC88
:100A90003B6869469B78A373687804F067F81A4B43
:100AA00000281AD000221A722270A260A2811A00B5
:100AB000103203CD03C23A68200092789A7204F093
:100AC0007BFD0500114B22691B6821009B6998473B
:100AD000681E8541684207B0F0BD2A781E722271F7
:100AE0006A78A2816A68A260002E01D12670DEE7D2
:100AF000012222700732E273D9E7C046A400002029
:100B0000B4050020C4050020E0000020B00500204E
:100B100070B5040000202F498AB0087063784B70CC
:100B20000E2B03D02C4B1B689B6A984700252B4E3D
:100B3000AB009B59002B04D01B6A002B01D0200076
:100B400098470135042DF2D123780B2B2ED00F2B93
:100B50000FD0072B0BD1002301AC23800293336805
:100B6000DB689847011E02D12000FFF773FF0AB02F
:100B700070BD002401A80470047104F03FF9184D01
:100B8000012328000622210016306B706C606C7502
:100B90000BF030FD104E20003368DB6A9847336855
:100BA00028001B6B9847FFF72BFEE0E70A4B6278A3
:100BB0001B680B48196B231D0E2A08D10C3A427092
:100BC000021D70CB70C270CB70C28847CFE7032282
:100BD000F5E7C046CC000020B0050020B405002099
:100BE000900500200D23020030B589B003AC2079B8
:100BF0002370063B1A409843104318402071200090
:100C000004F016FC094B22691B682100DB69050012
:100C10009847002D07D101A8058029004560FFF7FE
:100C200019FF09B030BD01204042FAE7B0050020AD
:100C3000F0B500278BB001AE05003000377003F02F
:100C4000F7FF33793C00AB4205D0012D18D0BD42EF
:100C500004D0022D1AD020000BB0F0BD2C00002BC8
:100C6000F9D03000357104F0C9F8002802D0012411
:100C70006442F0E728000C4B1B68DB6A9847EAE700
:100C8000FFF7BEFD094B04001D70E4E75C1EA341A5
:100C900030005C42357104F0B1F80028E7D1024B16
:100CA00028001B68DB6AE9E7B0050020AC050020DE
:100CB000002310B58AB001AC2000237003F0B8FF08
:100CC00020790AB010BD0000F0B50126224985B098
:100CD0000E70457804004D70002D3BD16A460379B3
:100CE0001E4F0B72C3894B72037C8B724369CB60BE
:100CF000437C0B74C3781370037B5370836868461E
:100D000001933B689B6A9847237F002B04D03B6884
:100D100029005B6B300098470025114BAA00D3587F
:100D2000002B08D09A69002A05D01978E3789942F7
:100D300001D1200090470135042DEED16379012BBC
:100D400008D1FFF7B5FF011E04D102A80180416060
:100D5000FFF780FE05B0F0BDCC000020B0050020FC
:100D6000B40500202C2310B58AB001AC20002370FC
:100D700003F05EFF042020560AB010BDF0B5002439
:100D800005003248324E04706B788BB04370336884
:100D90005B6A98472F4BA200D358002B04D0DB6925
:100DA000002B01D0280098470134042CF2D1287878
:100DB00001380C281ED80DF0C9FC071D1D1D1D1D76
:100DC0001D1D1D1F1D2F3900072301AF38003B706B
:100DD00003F02EFF204C7A682368DA61FFF7C2FF28
:100DE00020716B7820005A1E93415B426371336817
:100DF0001B6A98470BB0F0BD184B1B78002BF9D03D
:100E00000C2301AC2000237004F012FB336822692C
:100E1000DB6921009847EDE76B78002B03D10020B8
:100E2000FFF7E0FEE6E7FFF7EBFCE3E76C78002C6A
:100E3000F5D1012501A80470057103F0DFFF3368C7
:100E40002800DB6A9847054B1C70D3E7E0000020C0
:100E5000B0050020B4050020C4000020AC0500202F
:100E6000014B1B6818787047C40500202F2200B57D
:100E70008BB001AB029018001A7003F0BFFF431E45
:100E8000984140420BB000BD70B504000D0003282E
:100E90002AD80DF05BFC0220232600F0E9FD002893
:100EA00022D0134BA400E050124B44681B689A698F
:100EB0004262DA695B6B82620F4A8363C2620F4AE5
:100EC0000F4B02630F4A1B6842635A7928009968E6
:100ED000A047002070BD00F0DFFBE0E701F012FA50
:100EE000DDE700F0B5FFDAE701204042F2E7C04657
:100EF000B4050020B00500202D080008550A0008A0
:100F0000C405002001080008044B8000C35810B538
:100F10009B68181E00D0984710BDC046B40500203D
:100F2000124B70B51B6E002B00D0984702F04CFF9F
:100F300000240F4DA6007359E0B2002B09D01B69A5
:100F4000002B06D0FFF7E0FF002802D073591B6981
:100F500098470134042CECD1FFF74DFC002804D154
:100F6000044B01301B681B69984770BD782D010840
:100F7000B4050020B0050020064B10B51B68040026
:100F8000002B06D01B68002B03D051430800210022
:100F9000984710BDE8050020064B10B51B680400FB
:100FA000002B06D05B68002B03D0514308002100C2
:100FB000984710BDE8050020C3080200C85C07235D
:100FC00093431841012318407047072383439A40F5
:100FD00010B5140001229A401300C00809180A78BD
:100FE0009A4312190A7010BD002330B5934200D104
:100FF00030BDC45CCD5C6C40C4540133F6E7F7B53A
:101000000700002500910192019B9D4200D1F7BD90
:10101000AEB239003000FFF7CFFF00990400300076
:10102000FFF7CAFF4440E2B239003000FFF7CDFFBE
:101030000135E9E7F0B5002501270F4B461E1A1DC3
:10104000991CD28F9C88C98F96420ADC002D01D052
:101050009D1CE987944201DC0134A0B20433D88797
:10106000F0BD944205DD013155005D1989B26982F8
:101070003D000132E8E7C046E8050020002330B516
:10108000074C421CA58898B2854201D8002005E093
:1010900059006118498A01339142F4D130BDC046EC
:1010A000E8050020F7B50D1E009001921DD04C1EE2
:1010B0004C43631014004C43E41A174BE7101C40D8
:1010C00004D50823013C5B421C4301340026300058
:1010D000013600220099B6B2FFF777FFB542F6D18C
:1010E0000126019B9D4203D3F7BD0C000F00F7E7DB
:1010F0000A4B0099DB191A7B07231B1B1A41280096
:1011000032400134FFF761FF082C01D10024013780
:101110000135ADB2E5E7C04607000080E8050020D4
:101120000023F7B50125144C2260A080A17123642F
:10113000A360E218023355822A2BFAD1230000253E
:1011400041433C331D7001230E00FF275B42E360E7
:101150002374AE4202D100232364F7BD2368002B21
:1011600007D01B68002B04D001A90F7001222800B2
:1011700098470135EDE7C046E80500200048704774
:101180001A040000F0B5040095B00091032200217C
:1011900006A80BF02FFA3222002107A80BF02AFA3A
:1011A0000122002104A80BF025FA0122002105A844
:1011B0000BF020FABB4DEC872B1DDB8FA34203D92C
:1011C0000120404215B0F0BDAB88A3420ED3611E92
:1011D000AA79009889B2FFF7CFFEE31D5B00ED18F6
:1011E000002320006B80FFF725FFE9E7AE1CF38F9B
:1011F000052B04D9012344352B700020E2E72000A1
:10120000FFF718FF0020F38F8342DBD0030001219A
:10121000AD88641B0A0082402A40C24001309B18FE
:10122000DBB22028F6D1013B5A425A419E4B029232
:101230005C43002319000134EA109A421CDA0026AC
:101240006B100193019B9E421CD0029BEF188022E1
:10125000631163409B05D203134064101C193900CD
:1012600020000DF001FC8D42F1DD88B2012206A9BB
:10127000FFF7ABFE0136E5E706A8C01801330170A1
:10128000DBB2DAE700250195864CA388AB4229DC66
:101290000234E58F0024A54249D10024019B012B93
:1012A00000D08DE77F4E200031003C31FFF784FEF7
:1012B000B51CEB8F0293012842D0002C00D1C8E06E
:1012C000651E65436B10029D6543ED1AEB1001939B
:1012D000764B1D4004D50823013D5B421D4301357B
:1012E0002700A1E0AFB206A93800FFF765FE0600AF
:1012F000012812D16B00E3185A8A002A0FD106A9DF
:101300003800FFF762FEA279390007A8FFF744FE14
:10131000A27907A90098FFF767FE0135B4E7013A03
:1013200090B204A93200FFF750FE0196F5E704A938
:101330002000FFF741FE0128B0D00134A4B2AAE793
:101340002100029A05A8FFF7ADFEEA8F05A904A8BF
:10135000FFF755FE2000FFF791FE00240100B2794F
:1013600007A8FFF719FEB27907A90098FFF73CFE1E
:10137000ED8FA54227D14B4B9A1CD28F9E68964287
:1013800000D01DE73000012E00D81BE7023EB3B2AB
:1013900018000293FFF772FE424C0190A2790100FF
:1013A000023407A8FFF7F8FDE58F013D3D4CB5423B
:1013B00052DCA279019907A8FFF7DEFD013EE6D2D3
:1013C0000234E08FFEE604A92000FFF7F5FD0128B6
:1013D0000FD00134A4B2CCE704A92000FFF7ECFD44
:1013E000012800D15EE70134A4B2A542F4D1002463
:1013F00058E70024F9E704A93800FFF7DDFD0028CD
:1014000009D1019A274B01219B180722521B9140B9
:101410001A7B8A431A730135082D03D10025019BDD
:10142000013301930137BFB2029B9F42E3D32000F7
:10143000FFF724FEB27901000098FFF79DFD31000F
:1014400001223C312000FFF7C0FDB3680133B360D7
:1014500091E72500019443E7A71CFA8F029905A89C
:10146000FFF720FEABB20393190004A8FA8FFFF731
:1014700019FE05A9A8B2FFF79FFD012895D1FA8FA3
:1014800004A905A8FFF7BBFDA8B2FFF7F7FDA279F5
:1014900001000098FFF780FDA279009907A8FFF7E7
:1014A000A3FD82E7E8050020E903000007000080B3
:1014B00010B50400034908223E310EF0CBFF200096
:1014C00010BDC046E8050020044B081E02D00120D4
:1014D00059609A70587018707047C04630060020E6
:1014E000014B18787047C04630060020024B187830
:1014F000002800D05878704730060020F0B5C37837
:1015000085B00700CA2B2ED10024230019E0BA6849
:10151000591CD05CC9B20091032811D84A4E0DF075
:1015200015F90224678A002301257268601C13558F
:10153000A31CDBB2C0B203341554E4B2D5540091FD
:10154000009B3A7B9A42E2D8002C0CD0CA2302AA14
:1015500013703D4B54705B680021009303933B4B29
:1015600010001B6B984705B0F0BD00207073981DEC
:10157000C0B20090387F01900028E1D1581DC0B260
:10158000155C307A0007000F84460F200540AC45FB
:10159000D6D1981CC0B2155C515CD81C2D02C0B2CB
:1015A00004336918DBB2155CD35C2D046D181B067F
:1015B00002A8ED1807F060FB029B039958190290EE
:1015C00007F03CFB0F21327A13071B0F01330B404E
:1015D0008A43134333721D4B9B6B002BB0D0022602
:1015E00001986A1C964240412900C0B29847A7E77B
:1015F0000233DBB2009302230121726802A8135563
:10160000631CDBB2D15407F037FB029B104AA11CCC
:101610009B187268C9B25354E11C180AC9B25054DD
:10162000611D201D1D0CC9B2C0B206341B0E15541D
:10163000E4B2535484E70233DBB20093535C0722D5
:10164000134073737CE7C04630060020FC00002086
:1016500080C22AED30B50F4D8BB06B7A002B17D0BE
:10166000052301AC2370AB7A2000237103F0C6FB85
:1016700025232370EB7A2000237103F0BFFB2C237A
:1016800023702B7B2000237103F0B8FB00236B72C7
:101690000BB030BD3006002000487047FC00002031
:1016A000F0B58DB0FFF7C2F9002844D1234D03AC4B
:1016B0006F7A234E002F1FD105232000237003F0E3
:1016C000B7FA23792000AB72277103F097FB25232B
:1016D0002000237003F0ACFA23792000EB72012381
:1016E000237103F08BFB2C232000237003F0A0FA5E
:1016F00023792B73736B984701A807F0BDFA114A41
:10170000019B01219B186A68180A9070180CD07010
:10171000102053701B0E13712B7A11708343537179
:101720002B72094B697223806260336B00212000A9
:1017300098470DB0F0BD01204042FAE73006002086
:10174000FC00002080C22AEDCA06000010B5064C3D
:10175000637B002B06D0FFF7A3FF002802D1637B39
:10176000013B637310BDC0463006002010B5031E58
:10177000064C04D0002906D00123A160A271237079
:10178000034B186010BD0B000800F8E7400600206E
:101790006C060020014B18787047C04640060020B8
:1017A000024B1878002800D0587870474006002077
:1017B0000122014BDA707047400600207FB50025FA
:1017C00001A809F037FC1C4C01A8E678E57009F087
:1017D00036FCAE4222D02378AB421FD06378AB42B6
:1017E0001CD0A27BA368AA4219D00322E271023264
:1017F0001A70E27BA5735A70227C9A700122A27043
:10180000E02202AD2A70E2790C4803936A7007F077
:10181000DFFA0B4B21791B6B280098477FBDA2781C
:10182000012A02D0042AEBD1E8E70222E271A28960
:10183000110A19705A70E3E7400600205406002090
:1018400038010020084B1A78002A0BD05A78002A59
:1018500008D00278042A05D1033A9A73027ADA731F
:10186000427A1A747047C0464006002070B57A4C20
:101870008AB023780200002B43D0437B002B40D05A
:10188000C178E0293DD16578002D3CD1037B042B44
:1018900037D183681A78012A33D15A78012A30D196
:1018A0009A78012A2DD1DB78012B2AD1013201A8A7
:1018B000E27103326370A37003716171027025716C
:1018C000E570A581A573E573257403F097FA2800E8
:1018D00003F024FF614B1B685B68002B00D0984726
:1018E0005F4D6049280007F069FA5F49280007F05A
:1018F00015FB684609F09EFB01236846E37009F07A
:101900009EFB0AB070BDA3890133A3818368187858
:10191000A0700A28F5D80CF019FF061F22262A3DD0
:1019200049638E9199004E4807F0CAFA002363700C
:10193000A3814A4C01A80533037023681B78037107
:1019400003F05CFA2368587803F0E8FE23689B688C
:10195000002BD6D09847D4E70223E371D1E70123C7
:101960002371A370CDE7002323710133F9E704212C
:10197000A568137B2970A179E3718B4200D219000D
:1019800001238B42BDDA9068C05C0130E85401331A
:10199000DBB2F6E7042301AC2370344B20009D6AD0
:1019A00003F046FD00222100A847AAE70023637048
:1019B000A3812A4C01A80533037023681B780371A7
:1019C00003F01CFA2368587803F0A8FE23689B688C
:1019D000002B00D09847254B0120DB6A984790E701
:1019E000127B01AD032A10D102322A705A789B78FB
:1019F00012021343AB801D4B28009E6A03F018FDB2
:101A000000222900B0470123ABE7072AF3D1013AAE
:101A10002A7059789A7809020A43AA80DA781979E3
:101A2000120409020A4359790A4364214A43AA600D
:101A30009B792B73DFE701AC0A23ADE7002201A8F5
:101A400002705B78037103F0D9F95AE70D2201ACFB
:101A500022705B782371A0E7400600206C0600200E
:101A600054060020B1170008881300003801002038
:101A70000048704738010020014B18787047C04675
:101A80008C060020024B1878002800D05878704748
:101A90008C06002010B5034807F012FA0222024B10
:101AA0009A7010BD700600208C060020F0B593B02F
:101AB0000090C378C92B23D100231C000493019309
:101AC000009A127B9A421DD8002C19D0B44E0CAD4E
:101AD00073686C706B60C9232B70019B002B00D165
:101AE00057E1FA21002089000AF064FD049B0433C9
:101AF0009840AC4B1860AC4B06CD06C30123B370C5
:101B000013B0F0BD009A5E1C9168F6B2C85C08285C
:101B100018D80CF01BFE051957D717171717F70021
:101B2000009B9B78012B0DD09D4B03205A6800230E
:101B3000611CC9B2135550540121A31CDBB22418F7
:101B4000E4B2D1543300BBE70233DBB20293182373
:101B50008F5D964E7D086B430AA8F618FFF7A8FC28
:101B6000300008220C300AA90EF074FCFB0703D4E5
:101B7000F389029E002BE5D0894B01205968182378
:101B80006B438A4E0855F3189E892218D2B28E54A0
:101B90009A89A61C9204920EAD011543F6B28D559A
:101BA000DE89E51CEDB24E559D7C221DD2B205406A
:101BB0008D545B7905345B075B0FE4B20493029E9E
:101BC0000190BFE7009A9278012ABBD0885D0CAAE9
:101BD0005070DA1CD2B28F5C9A1CD2B28A5C3F027F
:101BE00017431A1DD2B28A5C382501925A1DD2B20F
:101BF0008A5C1E0002929A1DD2B28A5C0B36059254
:101C0000DA1DD2B28A5CF6B206921A000832D2B25B
:101C10008A5C07921A000A33DBB2CB5C0932099363
:101C2000029BD2B21D406B1E9D418A5CEDB20892B0
:101C3000152F3DD902231D430CAB5A789206920F03
:101C400091010D4329000395090724D10121197041
:101C500001990998197102990006597105995F80D7
:101C6000997108990904091806980918079800023B
:101C700009180E91012149421191193151434B4AE2
:101C8000521823CB23C223CB23C2494B01991A6894
:101C90003800FFF745FA0221414B5A68631C115581
:101CA00064180399DBB2E4B2D1540023019349E7ED
:101CB000019B322BBED8FFF761FA019B7B43834225
:101CC000B8D8B9E7009A9278012A00D13AE70322FE
:101CD0001820895D02330A4050433449DBB2455C29
:101CE000002D0CD104210A4303252D491E0048680C
:101CF000611C0555C9B20234E4B24254D5E700254F
:101D00004554F1E7DA1C0233DBB2C85C8B5D00029C
:101D100018431823870B7B43244DD2B2ED186B690F
:101D200002925A1C22D1029B8004C918800CFFF732
:101D300029FA68610AA8FFF7BBFB280008220AA954
:101D40000C300EF087FB1A4B1B689E68002E04D0E7
:101D5000EB892A796988A889B04718235F43134B18
:101D6000DF193E79029B9E19F6B2EBE6002BF4DBFD
:101D700002235B426B610E4B1B68DB68002BECD0CF
:101D800002206A88297940425143AA79891A9847E2
:101D9000E3E7084B01991B6B28009847B0E6C04663
:101DA0008C060020980600206818002008180020E3
:101DB000880600207401002037B5002401A809F02E
:101DC00039F90D4B01A89D789C7009F038F9012D67
:101DD00002D0022D0AD037BD084C094B20001968EB
:101DE00007F09CF8200006F0F3FFF4E72100054817
:101DF000FEF730FEEFE7C0468C060020700600209C
:101E0000980600206818002010B50C4B0C4C0028D8
:101E10000FD000290DD0DA7001221A705A700022FA
:101E20005960084B2060084908481A6006F0C6FF50
:101E300010BD002222605A701A70F9E78C0600204B
:101E40008806002098060020951A000870060020D9
:101E50000048704774010020014B18787047C04655
:101E60009C060020024B1878002800D05878704754
:101E70009C06002010B5034807F022F80222024B0E
:101E80009A7010BDBC0600209C06002010B50348C7
:101E900007F016F80122024B9A7010BDA40600202C
:101EA0009C060020F0B591B00290C378C82B6CD18D
:101EB0000023009320E0029A5F1C9268FFB2D05C7E
:101EC000042818D80CF056FC050017006300FD002C
:101ED0001801D54B02205A680023009953540B0077
:101EE0000131C9B25054009902330331C9B2009193
:101EF0000121DBB2D1543B00029A127B9A42DAD81C
:101F0000009B002B41D0C82308A80370009B002130
:101F10004370C54B01255B684360C44B1B6B9847FE
:101F2000C34CC44821788907890F0EF03DFB6168D6
:101F3000C1480EF039FB217AC0480EF035FB631919
:101F4000197ABF4801350EF02FFB102DF7D1BD488F
:101F50000EF02AFBA169BC480EF026FBE169BB48E4
:101F60000EF022FB616ABA480EF01EFB23002833F4
:101F70001978B8480EF018FBE16AB7480EF014FB68
:101F80003021B64861560EF00FFB11B0F0BD34247D
:101F9000D15DA74E4C438C46A155991CC9B2575CE4
:101FA0003519D91C6F60C9B2505C08340002C719DA
:101FB000181D6F60C0B2105C991D0004C0195F1D30
:101FC0006860FFB2D75DC9B23F06381803906860F9
:101FD000A0190590040018001630C0B24D1C515CC9
:101FE0002170E9B201348142F8D119001631C9B229
:101FF000545C34206146414318008D4E01911730E6
:1020000071188C61C0B2175C3F0238191C0018347B
:102010008861E4B2175D3F043F18180019308F61E2
:10202000C0B2105C0006C0198861049018001A3014
:10203000C0B2145C18001B30CC61C0B2105C1F0031
:102040000002041918001C30CC61C0B2155C1D33AD
:102050002D042819C861DBB2D55C14222D062D1879
:10206000CD610BA800210EF039FA0123022208AC41
:10207000019962702370A3708B5D03999B07616067
:1020800005999B0FA16004992000E37021616561AF
:1020900003F0CCF8644B009C596802230B552300D5
:1020A0000233DBB20093431E9841019B621C9B5D8F
:1020B00080009B079B0F1E37D2B21843FFB2885493
:1020C00019E70233DCB20323D55D009A564F561C44
:1020D00000997A681D4053542800F6B203F00CF9B9
:1020E000002801D004231D43009B0233DBB2009380
:1020F0007B6827009D55FEE606A9CD1D00212970AD
:10210000D05D03310840991CC9B2575C342141436A
:102110008C464749DE1C61440C004F62F6B2965D66
:102120003602F7194F62191DC9B2565C591D3604A3
:10213000F6196662C9B2515C494F0906C919891975
:102140000F2726006162991DC9B2515C28363940BB
:102150003170D91DC9B2565C19000831E662C9B2A6
:10216000515C1F00090231431E000936E162F6B2DC
:10217000965D0A333604314364267143E1622100DF
:10218000DBB2D35C30310B700423274E00997268A8
:102190000B3753546146264B2C31C9182A0003F0E3
:1021A000DFF8009BFFB20133DBB20493009B0233E4
:1021B000DBB20193002831D108A806F05DFD646A06
:1021C000089BE41A002C25DDFA239B006343254875
:1021D0001900039306F0A2FE224806F0F9FD0399C8
:1021E00021480EF0E1F92A78736804995A54019A4B
:1021F00021129C54009A24140332D2B29954009AAA
:102200000532D2B20192009A0432D2B29C54019BA0
:10221000009370E610232A7813432B70024B2A7820
:102220005B6804995A54F2E79C060020B001002034
:1022300070180020C5270108D7270108EC270108DE
:10224000D0210108591E0108FF27010812280108A2
:1022500025280108382801084A2801085D280108B6
:10226000803DD512A4060020AA27010837B5002416
:1022700001A808F0DFFE104B01A89D789C7008F0C3
:10228000DEFE012D02D0022D11D037BD0220FEF757
:10229000CFFCFA21094B0A4C28331B788900200017
:1022A000994006F03BFE200006F092FDEDE720008D
:1022B000FEF7BEFCE9E7C0469C060020701800202F
:1022C000BC06002010B50A4B00290DD0DA7001229F
:1022D0005960084808491A705A7006F06FFD07499E
:1022E000074806F06BFD10BD59701970FBE7C0463A
:1022F0009C060020A40600208D1E0008751E000804
:10230000BC06002000487047B001002013B50D48FE
:1023100006F0D6FD012300220B4C01932000009211
:10232000122106F03EFC200006F054FC002802D1E9
:10233000064806F04BFC0222054B1100200006F077
:1023400039FC13BDD406002040190020541F002082
:102350005523000810B5034806F030FC024806F08B
:1023600037FD10BD40190020D406002010B5054CE3
:10237000200006F0A5FD044806F028FC200006F029
:1023800027FD10BDEC0600206823002013B5134C78
:102390001349200006F012FDFA212000490006F042
:1023A000BDFD0020FFF7E2FF0E4C0F49200006F0B4
:1023B00005FDFA212000890006F0B0FD012300226E
:1023C0000A4C019300922000122106F0EAFB02223F
:1023D000074B1100200006F0EDFB13BDEC060020BA
:1023E0006D230008D40600200D23000840190020AA
:1023F0005523000810B5FFF7C9FFFEE70122014B86
:102400001A707047F70700207047000010B5437836
:102410000400022B07D0032B01D0012B06D1054865
:1024200006F04EFD02E0034806F0D2FC2000FEF765
:1024300063F910BD4408002007B5FEF7ABF9002191
:102440006B46684619800191FEF704FB07BD00004A
:1024500010B50400FEF7E2F82378013B012B08D801
:1024600063680848197801231940074B197006F072
:10247000A9FB0121054806F0A5FB054806F0A8FCCC
:1024800010BDC04668230020F6070020401B002036
:102490002C08002010B50121044806F093FB0448E5
:1024A00006F096FC034806F093FC10BD2C1B0020A0
:1024B000140800204408002010B5044806F000FD70
:1024C0000021034806F07EFB10BDC0462C0800200A
:1024D000401B002010B5044806F0F2FC0021034820
:1024E00006F070FB10BDC046140800202C1B002015
:1024F00010B5044806F0E4FC0021034806F062FB36
:1025000010BDC046FC070020541F002010B5FDF789
:10251000C3FF10BD10B50400FDF782FF0523E3568D
:10252000013302D1FEF768FA10BD0020FEF780FBF0
:10253000FAE710B5FDF71EFF10BD10B5FDF7DAFE86
:1025400010BD10B5FDF78CFE10BD10B5FDF77AFE7D
:1025500010BD000010B50A4C200006F0B1FCFA21B5
:102560000122084B890008481A700AF023F8074B2B
:10257000C118200006F0D2FC200006F029FC10BD96
:102580005C080020F807002018FCFFFF88130000FB
:10259000F0B585B008F082FD08F055FDFFF72AFF81
:1025A000524E5349300006F009FC1921300006F064
:1025B000B5FC504C5049200006F000FC20001921C9
:1025C00006F0ACFC4D4C4E49200006F0F7FB200015
:1025D000192106F0A3FC4B4C4B49200006F0EEFB02
:1025E00020004A4906F09AFC0023012201A9019328
:1025F000CA7002AA1380053353704548013B93709B
:10260000D370FEF7D3F843494348FEF767F9041E39
:1026100003D042480DF0C8FFFEE71420FEF726FC69
:102620003F492000FEF730FCFEF7E6F93D4D3E49FC
:10263000280006F0C3FBFA213C48890009F0BAFFE4
:10264000324BC118280006F069FC2000FFF782FF1A
:10265000FEF766FC03A808F0EDFC0022344B03A84B
:102660001C781A70E4B208F0EAFC012C2DD1FEF7B8
:10267000DDF9071E29D102232E4D2B70FDF76CFDCD
:102680002D4B38001978FDF77FFD08F0F7FC642327
:10269000FE2158430CF002F90DF0D4F8011C200083
:1026A000FDF78AFD6868FDF763FDFDF75BFD390006
:1026B00068702800FEF7CEF9002806D11F482100D7
:1026C00006F080FA300006F083FB03A808F0B2FCA5
:1026D0001B4B1A78012A05D100221A7003A808F0B2
:1026E000AEFCB5E708F034FEF8E7C046FC07002072
:1026F000F124000814080020D52400082C0800202C
:10270000B92400084408002095240008881300001C
:10271000722801082C020020F401002086280108FC
:10272000380200205C0800205525000818FCFFFF37
:10273000F8070020EC010020F6070020541F0020BD
:10274000F70700200423084A10B511780B431370D3
:10275000D223064A9B00D358002B03D0DB68002B02
:1027600000D0984710BDC0467408002078080020AB
:102770000223084A10B511780B431370D223064A7E
:102780009B00D358002B03D0DB68002B00D0984768
:1027900010BDC04674080020780800200123084AB4
:1027A00010B511780B431370D223064A9B00D358FF
:1027B000002B03D0DB68002B00D0984710BDC0462B
:1027C0007408002078080020064A074BD358FC33D1
:1027D00019780623022900D10B009121C900535416
:1027E0007047C046780800208C040000114B124A44
:1027F0009A5C920703D5114A9A5C012A0AD9104AB9
:102800009A581100FE310978002903D0FC32516832
:102810000131516083210022C9005A5409495A5498
:1028200009495A54DB395858023290435850012014
:102830007047C04678080020890400003504000075
:102840008C0400001C0400001B040000D223054A75
:102850009B00D35810B5002B03D09B68002B00D0F1
:10286000984710BD7808002010B50020FFF7EEFF54
:1028700010BD10B50120FFF7E9FF10BD10B5022013
:10288000FFF7E4FF10BD10B50320FFF7DFFF10BD19
:1028900010B50420FFF7DAFF10BD10B50520FFF7D3
:1028A000D5FF10BD10B50620FFF7D0FF10BD00000A
:1028B0001FB5084A084B02A9D3589C2252009A5CC3
:1028C00048708A700D2218780A7004F090FFC0B228
:1028D00005B000BD780800208C04000010B5104839
:1028E00006F0EEFA0F4B104A9A5C002A02D0012142
:1028F0000E4A99540E4A9A58FC321278022A04D190
:102900000C491E32585C02435A54D22292009B5802
:10291000002B03D0DB68002B00D0984710BDC046C9
:10292000780C0020780800201C0400001B04000024
:102930008C04000089040000D022802310B50A4CCA
:102940009200A1580B43A350084BE35C002B02D02C
:102950000020FFF7C3FF2221054AA35C0B43A354C9
:10296000FFF732FF10BDC046780800201C040000AD
:1029700089040000F0B5344C344E85B0A359019061
:102980000291FC331B78022B03D0314BDB6A03939B
:10299000984703F065FA051E05D0022003F08AFA75
:1029A000002002F077FFA359FC331B78012B18D1CC
:1029B00003F064FA071E06D0002003F065F900203A
:1029C00002F030FF3D0003F063FA002809D0002038
:1029D00003F060F9002002F037FFFFF7F5FE05B0C5
:1029E000F0BD002DF9D19122D2001A4BA25CE35C1C
:1029F000002A1BD1002B02D0174B019AE2540198F8
:102A000004F076F9E623A2595B00D05806F09DFA4F
:102A1000EF239B00E3589842DFD3104806F050FAAA
:102A200020230F4AA15C0B43A354D6E7002B02D00E
:102A3000094B029AE254029804F05AF9A359FC3364
:102A40001B78022BECD1C8E7780800208C0400002A
:102A5000782D01081C04000045040000180C00201B
:102A600089040000F0B5154C154E9A21A359154F55
:102A70001A001D0085B0FF32490059561878527B64
:102A8000FC350097EB6804F0F0FE022301220E4DA6
:102A9000390063550D4BE254A3590D4A187804F0E0
:102AA000EFFE002808D00B4B00205B6B0393984788
:102AB0009123625DDB00E25405B0F0BD7808002090
:102AC0008C040000600C0020FA030000F9030000F1
:102AD000A00C0020782D0108F8B50E0015001C0090
:102AE000070006F02CFA0B4B0B4A18605F601E8142
:102AF0005D811C73082311780B431370D223074A9E
:102B00009B00D358002B03D0DB68002B00D09847E4
:102B1000F8BDC0465819002074080020780800202D
:102B200037B506F00CFA6C460C4B0D4D18602000C2
:102B300006F0A2F8CE239B00EB1806CC06C31023A8
:102B4000084A11780B431370D2239B00EB58002BDB
:102B500003D0DB68002B00D0984737BD5419002004
:102B60007808002074080020F022F0B50025484CB9
:102B7000484B5200E35880219D5418008322FC30BA
:102B8000D20049004560A152434AFF39A154434A4B
:102B90000600A554A22252009D54843299521A0074
:102BA0001979FF32517159798FB091719A1DD17F86
:102BB0002622FF3299541A0019002932FF32283197
:102BC00081C981C281C981C2013AFF3A11789C2230
:102BD000520099541A003A2139321278FF315A546E
:102BE000DA6B0F0032641A6C04A972642C4A012655
:102BF000A554E32252009D5418780E71049504F0F8
:102C000009FE284BE554493BE554224BE1580B00A3
:102C1000FC33DA6AF6239B00E250F923CA5D9B007D
:102C2000E254F522204B9200E554204BA218E654C2
:102C30000233E318C1CAC1C341CA41C301260222FB
:102C40001B4B0295E6541B4B0395E254B23BE358F1
:102C5000AB4204D05A68DB68029201930393164B8F
:102C60000B910693154B164A0793164B06A808932B
:102C7000154B09930B0048330A934B1D4C31FF331E
:102C80000D9102A90C9302F0B7FF0FB0F0BDC04642
:102C9000780800208C0400001A0400001B040000C7
:102CA0001C0400001D040000E5030000E603000012
:102CB000F9030000FA030000E40C00209C0C002043
:102CC0009B280008D00C0020010D0020F7B5384CDF
:102CD000384E0500A3591F00FC373A78BC460192D4
:102CE000012A11D0002A03D0022A58D0032013E071
:102CF000002807D11A0029333132FF32FF3303CBCA
:102D000003C2F3E7012808D1280003F0C3FA002822
:102D100002D1A359FC331D70FEBD0320022DFBD14F
:102D2000FA21F520890080003D7061182018C4C880
:102D3000C4C144C844C119001F48019A25544E31EA
:102D40000D78002D26D02C2165464A439A18516EE5
:102D50006832696315789A2252009D54174AA55C1F
:102D6000353AA5540432A1503A22FF329A5CFE2330
:102D70009B00E254032301222354114BE25400250B
:102D8000104BE554104BDB6A01939847FFF76AFE3E
:102D90002800C1E701322C31042AD1D1EFE703200A
:102DA000002DB9D1084B3D70DB6A01939847EFE7DE
:102DB000780800208C040000FA0300001D040000C5
:102DC000F90300001C040000782D0108F7B50D0080
:102DD00006F076F80C4E0D4F336B019398470C4C70
:102DE0000C4AE3592900187804F04AFD002809D05C
:102DF000E359726BFC335869019290479123AA7C86
:102E0000DB00E254F7BDC046782D01088C040000B9
:102E100078080020A00C002010B50E4B0E4A995CDB
:102E20005D3A995426210D4AFF319A58505C0C495D
:102E300058543A21FF31515CF422920099540022F7
:102E4000084909485A5409495A540949FFF7BEFF2D
:102E500010BDC046780800201D0400008C0400004E
:102E6000C3030000D1030000000C0020D2030000C7
:102E7000380C0020912210B5104BD2009A5C002A29
:102E80001BD00F4A995C493A99540E4A9A5811003E
:102E9000FC31C86AF621890058503A21FF31515C53
:102EA000F922920099540021074A08489954084A87
:102EB000013199540749FFF789FF10BD78080020B8
:102EC0001D0400008C040000E5030000180C002025
:102ED000E60300004C0C00200023F0B595B00692EC
:102EE0000D2207001C00039106A9521813700AAAAC
:102EF00013800293039B9C4201D315B0F0BD3D1992
:102F0000287803F049FE039B00199842F5DC2878E5
:102F1000661C0238F6B21128EFD80BF021FC120023
:102F200029009200AD00FC0012014C016901BA01B8
:102F3000EEFFEEFFF501EEFFEEFF45025A027502CD
:102F40008F02042003F0F0FE00280FD0042100209F
:102F500003F0A8FE8C22B95DE64BD200E61C0234D9
:102F60009954E4B2395DE44AF6B299543400C1E7A9
:102F7000002306AA9373D3730BAD0CAA2B701370A6
:102F8000029B002B5AD1731E10A9FB184B60039BA8
:102F9000DA4801339B1B0B72D64B1B581800FE30CE
:102FA000007888729C204000185C48721800FF303E
:102FB0008679CE72407906AE087392204000185C84
:102FC0004873EE2040001858109018780F23019293
:102FD00006AA9B180E220095921904F068FC06AB15
:102FE0005873C043430712D1C44AC24B06A99B5829
:102FF000897B1A00FF32917106A9C97B5171922118
:103000002A7849005A54FFF72FFCFFF732FC0025BD
:1030100009E00D2306A95B1801221900032003F023
:10302000C5FC0135EDB20CAB1E78052130000BF06C
:10303000ABFBC0B28542ECD3A619F6B201230293D2
:1030400094E7AC4AAD4B0234D1580F22BB5D04204B
:1030500013403632FF328B54443AFF3A9A40130001
:10306000E42252008B5200220AA9E4B203F09EFC33
:10307000FFF7FAFB260079E7072106AB5973BB5D22
:1030800010AD1A090A406A700F2213402B70221DDE
:10309000E31CDBB2D2B2FB5CBA5C661D02341204E4
:1030A000E4B21B0213433A5D944C1343642253432E
:1030B0001193904B29001B59F6B21878049304F031
:1030C00005FC072106AB58730840884212D1894B92
:1030D0002A781B592631FF315A5408315A541A00A4
:1030E0006968FC32D162516326226978FF329954B3
:1030F000FFF7BAFB0D2306AA9B181B780AA9012229
:1031000005200B7003F052FC10237A497C4A885C3E
:1031100003438B542AE7D223764A9B00D358FF20DF
:10312000002B03D01B68002B00D098473F23069A42
:103130000AA913400870022206204B7003F036FCE7
:1031400014E70D2506ABED1803232B70BB5D0CA90E
:103150000B71E31CDBB2F85C231DDBB2FB5C0002ED
:103160001B040343A01CC0B2385CA61D03436420AB
:103170004343109300230534E4B211933B5D10AA3E
:1031800013720C925D4B5B4AF6B2D358187804F078
:10319000A6FBC3B22B70002800DAE7E60AA90122D9
:1031A00007200B7003F002FC2B78032B00D0DDE628
:1031B000FFF75FFBDAE60F23BA5D0234E4B21A4090
:1031C00000D101324B4D4D4B0820E958A43B5343ED
:1031D000FA22FC3192008B619B18CB6100220AA974
:1031E00003F0E4FB1023464AA95C0B43AB543FE7D2
:1031F00000220234E3B205930BACBB5D2270203297
:103200001A4044D16270DA0601D5012222700F22E1
:103210001340A370394E374B21009B591878049303
:1032200004F066FB431C30D0324B9D592378049345
:103230009C23049A5B00EA543A236278FF33EA54F1
:103240002B00FC330793A3782E4AD05C0CF044FB90
:10325000079B10A9186402230B70049B8B702878BD
:1032600004F0C5FA234B0C909B59021CFF3399794B
:1032700040B24CB2A04200DA0A1C9A710AA900229C
:10328000092003F093FBFFF7EFFA059E6EE601229B
:10329000B8E70D2506ABED1803232B70BB5D10A915
:1032A0000B70221DE31CDBB2D2B2FB5CBA5C661D64
:1032B00002341204E4B21B0213433A5D0D4C134373
:1032C000642253434B600D4BF6B2E358187804F078
:1032D00018FBC3B22B70002800DA47E60AA90122C6
:1032E0000A200B7003F062FB1023054AA15C0B431C
:1032F000A35459E778080020610400008C04000002
:1033000089040000AC2801080A2003F00DFD002804
:1033100000D12BE60A21002003F0C4FC1E2306AADC
:103320009B1800221A80A31CDBB2FD5CE31CDBB2FD
:10333000F95C2D0209040D43231DB95DDBB20D4379
:10334000F95CFA23A61D0534E4B23A5D9B005343B1
:1033500006AA1B120906938310A80D4305F08CFCE6
:10336000414B424CE918CF239B00E3181B680D9A90
:103370000093CE239B00E3580EA80C9105F048FC67
:103380000F9B119A009310990E9B0CA805F026FC38
:103390000C980D9905F052FC02F098FE882301224A
:1033A000DB00F6B2E254E1E50D2003F0BDFC00289D
:1033B00000D1DBE50D21002003F074FC91232B4AA2
:1033C000DB00D35C043B012B00D8CFE502F0EAFD23
:1033D000CCE5A31CDBB2F95CE31CDBB2FB5C0902AD
:1033E0001B0419436423BA5D661D0434E4B211431F
:1033F000385D5943553B184002F0EAFD0AA90870B0
:10340000F6B20122112099E60E2003F08DFC00286F
:1034100000D1ABE50E21002003F044FCA31CDBB27D
:10342000F85CBB5D00021843261D114B0334E4B267
:10343000395D1A68F6B202F013FE97E5BA5DA31C77
:10344000261D0334DBB2E4B2F85C3B5D00021B04D2
:10345000184364231043584302F08CFE0AA90870F5
:10346000F6B20122132069E6803DD51278080020CB
:1034700058190020D022064B92009A580120002AA9
:1034800005D1044A985C0138431E9841C0B2704788
:10349000780800208A040000F0B500251F0087B0DE
:1034A0000CAB584C1E88584B0392E5543B005A1EF7
:1034B00093415B421E400190029132003900534813
:1034C00025800495059509F080F8514BF2B2E2543D
:1034D000019B1B78A370019B1B785B09042B3CD0DC
:1034E000072B00D17FE00220022B34D126000423D9
:1034F0002700FF367371474BFC37FB60FF23737364
:10350000019B03991B78444DB37394235B00E154F2
:10351000635904A89B6C7B61029B1B78737598238D
:103520005B00E254394B3B6303F0BAFD0300122009
:10353000002B10D12100049AFE310A83374905A8D7
:103540006354013963548A23DB00E25003F0D0FA5C
:10355000002806D0132007B0F0BD01232A49635488
:10356000C4E7059B002B01D10020F4E70620635936
:10357000FF331856FFF79CF9254BE35C002B1ED058
:10358000059B0F2B11D8264A05A90F2003F0BCFA82
:103590000028DFD10F21029B059A1B780A408B433C
:1035A0001343029A13707375D5E7625905A9473220
:1035B000FF3203F0A9FA0028CCD10A30CBE76259D8
:1035C00005A94732FF3203F09FFA0028C2D19423A5
:1035D00098225B00E054635952004733FF333B634A
:1035E000059BA354B7E7002FBED0002ABCD0F2B28F
:1035F00039000C4808F0E9FF054BE35C01332380F8
:10360000B2E7C046780800201C040000B009002082
:10361000370200007A0800208C04000049040000F2
:10362000900900207B080020F0B589B002ABDE1CB9
:103630000023494C494D3370635904A91A0008709E
:10364000FF3207009079487052798A701A00FC3274
:10365000106C526C48608A60228818788A81404BCE
:10366000320004F018F901223E4BE2546359FF3353
:103670009A793D4BE254327884263C4BF600E25472
:103680003B4B3C4AE750A359A3503B4AA35002F09E
:1036900035FC002819D16359FC331B78012B01D16B
:1036A00002F0B4FD02F0CCFD63590625FF335D57EF
:1036B000324B2700E65C0023FF3703937B79002B16
:1036C0000CD0042B27D0032305E0A05902F076FD8F
:1036D00010230028DFD0180009B0F0BD284803F0FF
:1036E00059FD002835D17B7BD02223800223920014
:1036F000A1580B43A350234BE35C002B03D1D832DA
:10370000A35C0133A354204B21789B6A1F4801938B
:1037100098470023DFE703A803F0C2FC1223002828
:10372000D9D18323DB00E35C002B03D1184BE35C8E
:10373000012B02D9039B013B0393E9B2104B3200EA
:10374000039803F0D9FD002803D12300FF335B7BEE
:10375000CAE71123BFE7C046780800208C040000A8
:10376000980C0020450400004604000047040000B7
:10377000540400004C0400005C0400001D04000020
:10378000800900201C040000782D01087A08002020
:103790001A040000F0B591B0039002F061FB0E2610
:1037A00000281AD1814C824D6359FC331B78012BC0
:1037B0000ED0E820635940001A58002A15D0260080
:1037C000FF367379002B1AD0042B1FD0032604E098
:1037D00002F054FB002803D00F26300011B0F0BDDA
:1037E00002F056FB0028E4D0F6E7E4225200995A92
:1037F0008422D200A25801394A431A50DFE76D48AB
:1038000003F04DFF002805D01126E6E7694803F0D4
:103810007BFFF7E7E822737B5200238063590AAEEF
:103820009A5808A80A921A00FF32927904AF3272AD
:103830004622FF329B5CB37205F046FA6359089941
:103840001A00D932FF32126838000092EA22520080
:103850009B58099A05F0DCF90DAB06CF06C3E622AA
:10386000635952009A5801217260002232752288F1
:103870007172F282F02252009A5C002A01D13175F5
:1038800072721878D133FF33009331004A4B4B4AA0
:1038900004F04BF8061E1AD00B289ED1039B002B78
:1038A0009BD092220026414BD2009958B14200D1C0
:1038B00093E7D020202280001C582243404C1A500D
:1038C000200005F02BFB200005F082FA85E7615906
:1038D00026230A003A20FF320E789279FF30FF3318
:1038E000CB5652B2095C300004F033F8635941B250
:1038F0001F00FF335A7B334BFC370093FB683000CB
:1039000003F0B3FF635996211A001E00490059566F
:1039100018782D4BFF32527BFC360093F36803F08E
:10392000A4FFF3239B00E2586359EE27FC33996907
:10393000BF008818EF21E0518900F8208C468000F4
:1039400026586046D96989192150F02160594900EB
:10395000415C002906D1186A5B6A8218E25162460E
:103960009B19A35000230793994217D007A803F08F
:10397000BFF81326002800D02FE706200B4B134A70
:103980009C5C5B59079AFF331856D6B2FEF790FF3E
:10399000A41980B20826A04200D21EE7034A0C4BAD
:1039A000D05CFFF741FE060017E7C046780800200C
:1039B0008C04000080090020080D0020950C0020D8
:1039C000E80B0020380C00204C0C002037020000CF
:1039D0001D04000010B5114805F072FAD022202312
:1039E0000F4C9200A15801209943A150FFF7D2FE3D
:1039F000002812D00B2810D009200A4BE358FF33BF
:103A00009A79094BE254094BE25C094BE254094BA9
:103A1000E05403F06DF9FEF7E9FE10BDE80B00205D
:103A2000780800208C040000460400001A040000FE
:103A30004904000045040000F0B591B00793454CDF
:103A4000454B0591195906920B0006220527049053
:103A5000FF339A5607260392DF57033B5D68F02336
:103A60000A955B00CB5C002B64D0A2235B00CB5C8F
:103A7000002B02D1E82252008B50002209AB1A70B1
:103A80000A00FE3212789446D2011A700A00FC3203
:103A900010781A7801384642704110260001B2436E
:103AA00002431A70E32252008A5C002A03D02022CB
:103AB000187802431A70EE235B00CB580BA80B93C7
:103AC000634601264371FF238560234D06719B00E9
:103AD000EB5A4A1D8381214BFF32EB5A4774C38155
:103AE000039B03749C235B00CB5C83740B780631CF
:103AF000C374FF310AAB01F027FE402309A930400F
:103B00000E7880019E43079B06430E70059A009332
:103B10000498069BFFF7C0FC061E01D00A2804D1BA
:103B20000020FFF737FE061E07D02B59039AFF33FC
:103B30009A715F71300011B0F0BDE3222B59520031
:103B400098540A9AFC335A6002F0AAFF0028F1D078
:103B50001326EFE78C04000078080020FE03000025
:103B600070B5050000240120FF2D1AD12000FFF7B9
:103B7000ADF80D4B0D491A00FC33FF32D96054717A
:103B80005573947307F032FA08220100084808F0D0
:103B90001CFD07F015FA08220100064808F015FD83
:103BA0002000FFF7F7FD70BD780800207A0800209C
:103BB000860900208E09002030B5124B124C87B0C8
:103BC000E35C02AA1370114B02ADE3581A00FF32F6
:103BD000917969705279A881AA701A00FC32116C2F
:103BE000526C0391187829000192049203F0AAFE06
:103BF000D022022300209200A1580B43A35007B00B
:103C000030BDC0461D040000780800208C04000070
:103C100010B50400074B0800DB6B11002200984729
:103C2000D022022304499200885803438B5000207D
:103C300010BDC046782D01087808002013B5144B3C
:103C4000144C15482360F4235B00636003F022FAF0
:103C50000023124A0193124B01A9D358206118780E
:103C600003F0DFFD019BA0600E48E36007F06EF8F3
:103C7000A0610D4802F094FE20620C4801F0FEFFA6
:103C8000A0620B4802F0D4FF2063200016BDC0469E
:103C90000C0D0020681900207C19002078080020F5
:103CA0008C040000841900208C1900209419002035
:103CB0009C19002073B50323041E36D0D023284D51
:103CC0009B00EA5801239A422FD10168002904D0B1
:103CD000436824489AB208F078FC6A460323224ECF
:103CE0001371A36869460093AB59187803F092FDED
:103CF0001E4BEA5C353BEA54AB591A00FC32516B5F
:103D0000FB229200A9503A22FF329A5CFE239B00CC
:103D1000EA540122164BA069EA54164B9218EA5451
:103D200007F006F8002802D01123180076BD20699C
:103D300003F0A2F90028F7D1206A02F023FE132332
:103D4000051EF2D1A06A01F08BFF14230028ECD0ED
:103D5000206B02F05FFF15230028E6D02B00E4E77C
:103D6000780800200C0D00208C0400001D040000C9
:103D7000F9030000FA030000020010B50320002A36
:103D80000BD0002909D00F23147B1C4006D0531CF4
:103D9000DB7F002B02D00020087010BD13002833F9
:103DA0001878002802D101220A70F6E71720002CAB
:103DB000F3D10132D37F002B03D102330B702000EB
:103DC000EBE70323FAE70000F0B5B3B013A807F060
:103DD00031F90022D44B13A81C681A6007F02FF9A0
:103DE000002C00D1FFE0E3B20393DB0672D5CF4C89
:103DF000CF4D6359FC331B78022B03D0CD4BDB6ACC
:103E000002939847EE23CC4E9B00E158300005F01A
:103E100085F8300004F0DCFFEF23C84E9B00E1582A
:103E2000300005F07BF8300004F0D2FF63591A002F
:103E3000FC321278022A03D0C14AA25C002A11D0B7
:103E400015221CA918780A7003F0D1FCEF239B00FF
:103E5000BC4EE1581A900918300005F05FF83000A8
:103E600004F0B6FFE622B84B61591B6852008B5034
:103E7000B64A26AEA25C18A83270736004F024FF24
:103E8000635910AF1A00D932FF32126818990092A4
:103E9000EA2252009B583800199A04F0B9FE29AB67
:103EA00006CF06C38423DB00E358F022B36001236E
:103EB0007370635952009A5C002A00D172701878AE
:103EC000310003F0A0FC994B9D4A9A5C002A01D175
:103ED0009F495A54039B1B0756D59E4B934C5A68D7
:103EE000934E04920A215A5E1F890692A2591B7BA7
:103EF000926C5BB20992892205930023D200A354ED
:103F00000699954A1593A1520599944AA1545432A1
:103F1000A25C93496254934AA352934AA354934A8E
:103F2000A3500432A354924AA354924AA354023297
:103F3000A350914AA354914AA3500432A3547D4BF9
:103F4000DB6A029398477D4804F0BAFF3900049871
:103F500001F0A6FE824B051E0A93824B02960C933B
:103F6000814B0D93814B0793814B0B93814B0E93A8
:103F7000814B0893814B0F9300D111E1804B069A3E
:103F8000E252059A0233E254039B5B071DD5674C4E
:103F9000674BE358FC331B78022B03D0654BDB6A7D
:103FA00002939847FEF710FC0220694BE05402F0A0
:103FB0009FFE634BE35C002B02D00122714BE25465
:103FC0002023714AA15C0B43A354039B9B0703D599
:103FD00006210520FEF7CEFC039BDB0703D5042159
:103FE0000320FEF7C7FC02F0F3F9674D4F4C625D0A
:103FF000930667D5D0210023644889002354635871
:104000000290180602D582208343635005231A428A
:1040100000D116E30C2002F087FE002800D110E347
:10402000635DDA0700D50CE35B0700D409E3D02217
:1040300002239200A1589943A150D0239B00E3583A
:10404000002B2BD1675D01333A001A4002D03900B2
:10405000994361550421635D0B4201D08B43635545
:10406000012302996354002A05D0D1239B00E35811
:1040700047481B6898470426374209D0454802F054
:104080005FFE02F089FE002802D0635D1E43665584
:1040900001F054FF2022635D93436355D0239B00BE
:1040A000E358002B0BD126AE3000337002F05EFDDA
:1040B0003378002B03D01023625D13436355012333
:1040C000029AA3540822635D134207D093436355B9
:1040D000D1239B00E3583048DB6898471026635D86
:1040E00033420CD0072326A8037000234370D1234A
:1040F0009B00E358DB689847635DB3436355022236
:10410000635D134207D093436355D1239B00E3586B
:1041100022485B6898479123DB00E35C022B01D1C6
:10412000FEF7A0FC33B0F0BD740800207808002032
:104130008C040000782D0108000C0020180C0020D1
:104140001C040000780C0020541900201D040000FD
:104150004504000058190020320400003404000017
:104160003504000026040000290400002C0400008F
:104170003104000036040000240400003C04000068
:104180007E0400001B040000890400008A04000073
:10419000BC0C0020D00C0020E40C00209C0C002063
:1041A000029BE3580693FC331B78012B0CD101F0E2
:1041B00065FE061E19D0280001F066FD280001F0FA
:1041C00031FB0423C04AA354049B1B7858090138CF
:1041D0000693062800D926E20AF0CCFA130025023D
:1041E0009C00250299002502120201F051FE0028D0
:1041F000EAD0300001F04EFD300001F025FB052330
:10420000E0E7102F06D80121B04AB14BD154FEF798
:1042100093FBB9E6049B1CAD1C93029BFEB2E358D2
:104220002E710493F023049A5B00D35C002BEAD137
:1042300006F0DCFE2A000100FF2002F0DBFF002870
:104240005DD1AA7AE97A120209040A43697A029BCB
:104250000A432621E358FF315A64EA689A642A7CAB
:104260005206520F5A542A7C07311207120F5A5421
:1042700008315A5419006A7CFC31002A3DD08A6109
:10428000FA22886992004243FA2080008A6112185B
:10429000CA61EF22002552009D541AA9953A113E99
:1042A0000E710EA8FF3A121818781A9203F0CDFA80
:1042B000029B0221E258F0235B00D154012002F05E
:1042C00033FDA84203D00121280002F0EBFC7F4C13
:1042D000804BE35C002B00D1ABE18923DB00E35C86
:1042E000002B02D00020FEF7F9FA20237A4AA15CC5
:1042F0000B43A354FEF768FA46E60122BFE701200C
:1043000002F012FD0028E2D001210720DDE70123A1
:10431000724AA3543A226D4E029BFF32F35816A9FB
:104320009A5C8A708522D200B25C4A700D2218789D
:104330000A7003F05CFA3A000D3A1490131C120450
:1043400000D50023149A1BB212B2934200DD5AE743
:104350000B2F00D857E7FF22049B26AD2693604B16
:1043600028002F9330AB2F711A7003F03DF900280D
:1043700000D048E75B4BAA681AA92800F250FFF763
:10438000FBFC002800D03EE7029B0400F358AD6818
:104390001A0015904E32911C0968A94222D110785A
:1043A00000281FD02C206043181802004F321478C8
:1043B000C26E126815921A00FC321278022A03D1DA
:1043C0000320424A0A9D50551AAA1278032A00D0A7
:1043D00019E726AA107B6022104200D013E709914A
:1043E0005F3A04E001342C32042CD4D10022049230
:1043F000142216A918780A7003F0F9F9334A1490B8
:1044000081B202981AAB1058EF2252001B78825CDE
:104410002F4E042C44D820000AF098F9033D393B74
:104420002E00042526AFFA8915AB280002F046FEBF
:10443000002839D0254B07282FD108229A55029AF7
:104440009B58EF2252009A5C002A0FD106991F3226
:1044500091430A00A02909D14532FF329958FA6ADE
:10446000914203D1E3220121520099548723174A34
:104470001599DB00D150CAE60325012AD2D1013DAE
:10448000002BCFD0033B5D425D410135CAE70625D5
:10449000C8E70725C6E70525C4E70A22082801D092
:1044A00001220A4B9A55E1E7159B00972A000999CA
:1044B000200002F087FF054B002815D00238421E6D
:1044C00090410B309855A2E6350400007808002092
:1044D000250400001C0400008904000024040000DE
:1044E000B00A00203C0400000C9A04990D9C9954D9
:1044F0003A7B9855D106C90F19550799159C585004
:104500008621C900585408315C5092060E99D20F8A
:104510005A549E49585403315A540A9A9A5C012AB3
:1045200003D802995B58FC335860049B984C26AD25
:10453000012B19D1013308996354964BE15C2B7B15
:10454000012A05D8012901D19B0601D502F0B8FA4C
:104550001AAB187803284ED861270EABFF188E4E81
:104560000AF0F4F81E3544251F210698029B884363
:104570000100E320E3584000A0290CD19F391954D1
:10458000DE31FF31595C002903D1E531E86AFF31A2
:1045900058500123CFE700211954089BE154CCE780
:1045A000297B059A0907090F2AA8FEF795FCFB7FCE
:1045B000A3556B6A0493049A079BE25030AB1A78B8
:1045C0008623DB00E25401230B9AA35408E0297BE5
:1045D000059A0907090F2AA8FEF77EFCFB7FA35561
:1045E00002236E4AA15C0B43A35470E630AB1978EA
:1045F000059A686AF0E70123A355FEF79DF9EFE7F6
:10460000674E04997D1EAAB20131300007F0DDFF2C
:104610000323644AA3540022634BE254634BE650E5
:104620000433E554DCE701225F4BE254FEF784F9E2
:104630004DE6029BE358FC331B78022B00D054E676
:1046400050E6635D5B0712D50120D02602F06CFBBB
:10465000B600002835D0012002F038FB002802D136
:104660008323DB00E0540223A2599A43A251615DE7
:10467000CB0700D4E1E4474BE35C002B01D0032BD4
:104680002AD18322D200A05C9222494B5200E358E7
:104690009A5C904209D28A0755D5FC331B78002BCF
:1046A00003D0444BE35C002B4DD1434804F008FC9D
:1046B000D02220239200A1589943A150FEF796F8EA
:1046C000BBE4052002F030FB0028CCD1062002F02C
:1046D0002BFB0028C7D1CAE7012B34D1374BE25C52
:1046E000002A00D1A9E43648364E235CA75D03902A
:1046F000BB4205D20022890702D58922D200A25CE2
:10470000EF212B4E4900A059415C00293BD1002AE2
:1047100023D1BB4217D20133039ADBB2A354DB0788
:1047200011D5212326A90B701833FF33C35C8B707E
:104730000300FF339B794B70007803F058F8A359BE
:104740001C90FF33987120220020635D93436355D2
:104750001A4BE054FFF73EF96FE48927FF00E65D4E
:10476000002E0BD1022326A90B71174B00789B68F2
:10477000269303F04FF8154BE655E654039BE25C95
:10478000134BE25491E7002ADDD08EE74504000088
:104790007808002044040000270400008904000079
:1047A000B00A002024040000250400002C040000AE
:1047B0008C04000035040000E80B00201B040000FE
:1047C0001A04000019040000681900201C040000ED
:1047D00049040000F0B58BB007000191009203235B
:1047E000002800D158E1002900D155E10268002AD3
:1047F00000D151E14268002A00D14DE18268002ACF
:1048000000D149E1C268002A00D145E1009802F0D8
:10481000EAFF0923002800D13EE13800B24902F046
:10482000E1F9F422B14D52002800002107F0E2FE28
:10483000AF4CB04A0021200007F0DCFE0120AE4B57
:104840000022E054AD4BAE4EE054009BA5512B70BE
:104850002B00FC331A70EE23AA4A5B00EA5006AD27
:10486000CF3BFF3B290000982B7002F0C0FF059062
:10487000421E904146220A21A359FF3298542970C2
:104880001878290002F0B3FF0621A3592970187186
:1048900029000590187802F0AAFF0F22A3592900D9
:1048A0005871059018782A7002F0A1FF1022A359C0
:1048B00029001861059018782A7002F098FF1122DB
:1048C000A35929005861059018782A7002F08FFFCB
:1048D0001222A35929009861059018782A7002F0D5
:1048E00086FF1322A3592900D861059018782A70F1
:1048F00002F07DFF1622A35929001862059018784E
:104900002A7002F074FFA35929009A1DD07717224C
:10491000059018782A7002F06AFF1822A35929001E
:1049200098621863059018782A7002F060FFA35906
:1049300005901A00C0B22C32107010721D2229008E
:1049400018782A7002F053FFA35929001A00383250
:1049500010701E22059018782A7002F048FFA359A3
:1049600029001A00393210701F22059018782A7019
:1049700002F03DFF0590A359059A2900DA63202231
:1049800018782A7002F033FF0590A359059A290080
:104990001A640B2218782A7002F029FFFF239B006B
:1049A000E0520C232B70A35929000590187802F0CF
:1049B0001EFF554B0590E05206210120A3590A2500
:1049C0005A1DD07719731900FC310A009D60CD6023
:1049D000043D0D741D6908A955615D6995619D6966
:1049E000D561DD6915621D6A5562922252009854A4
:1049F0000022050018780A71089202F00BFFFEF7FA
:104A0000B3F8A35900211800FD3002001570D1221F
:104A100028009200019DA7500432A5503B4A02AFE6
:104A2000A1544A3AFF3AA050753AFF3A99500432DD
:104A300099503748374904F0C1F93749374804F0ED
:104A4000BDF93749374804F0B9F93749374804F018
:104A5000B5F9A5593800D535FF3504F035F90CCF37
:104A60000CC5D323324A9B00E250324A0833E2504D
:104A7000314A0833E250314A0C3BE250304D314A62
:104A80000833E2502B683048009398472F4806F0CF
:104A900041F9002803D0112318000BB0F0BD2C48B9
:104AA00002F0B8FA0028F6D12A4801F059FF132382
:104AB0000028F1D1A0594C3002F03EFB071EEAD18C
:104AC0006B690093984707F06FFDA359FD33187881
:104AD000AB6D00939847EB6A0093984701221E4BF9
:104AE000E2543B00D8E7C046A52800080C0D002082
:104AF00078080020940400001A0400001904000043
:104B00008C04000000030001FE0300008904000083
:104B1000E80B0020D5390008192E0008000C0020F1
:104B2000752E0008180C0020DD280008780C0020E5
:104B3000212B0008D92A0008712700084527000802
:104B4000782D01089D270008C40B00208728000845
:104B50007D280008912800088A040000D023002046
:104B6000014A9B00D050704778080020F0B52D4BCB
:104B70000C002D490027CB588BB01A00FC32566828
:104B8000019002AA0396951C5A792A70187902AAF4
:104B90000332107004970320BC423CD0DD37FF374E
:104BA000DF5905A80597002707711F00FE373F78DA
:104BB0008660FF264771B6008E5B86811B4E895B3F
:104BC000C1811900FF318E790674497941749C21A5
:104BD0004900595C81741B782900C37403AB00F051
:104BE000B3FD00202856FDF763FE607004A801F0B5
:104BF0007FFF03001320002B0DD104980F280CD841
:104C00006378984209D81A1A2270019A10188342C0
:104C100080414042C0000BB0F0BD0023082023704B
:104C2000F9E7C0468C04000078080020FE0300006D
:104C30001FB504000320002C2ED02078352800D981
:104C4000D4E009F083FD1B212B2F32353A40D3D31A
:104C5000D3D3D3D3D3D3D3D3D3D3D3D3D3D3D3D324
:104C6000D3D3D3454A545B6369726F757A80868C5F
:104C700092989DA8A3ADB3B9C3C0D3C85D4A5E4B9B
:104C8000D358FC331B7805E05B4B5A4AD258F023CB
:104C90005B00D35C2371002004B010BD06F090F9D6
:104CA0006060F8E706F0A2F9FAE706F0B5F9F7E771
:104CB000504A514BD358FE33E4E74E4A4E4BD3583B
:104CC0005B6C6360E7E74B4A4B4BD3589B6CF8E750
:104CD000484A494BD358FD33D4E71C2302A90B7033
:104CE000444A454BD358187802F081FDD8E7414A31
:104CF000414B0434D3582933FF3304E03D4A3E4B43
:104D00000434D358283306CB06C4C4E7394A3A4B97
:104D10000434D3583133EFE7364A374B0434D35891
:104D20003033F0E702A91A23D9E702A91923D6E7FD
:104D3000314B304AD2589223AAE72E4A2E4BD358F1
:104D4000FC335B69BDE72B4A2B4BD358FC339B6983
:104D5000B7E7284A284BD358FC33DB69B1E7254A2B
:104D6000254BD358FC331B6AABE7224A224BD3585E
:104D7000FC335B6AA5E71F4A1F4BD3585B7989E771
:104D80001C4A1D4BD358FF339B7983E7194A1A4BB2
:104D9000D3581B797EE7174A174BD358FF33EDE7FB
:104DA000144A154BD358FC33DB688AE7114A124B7F
:104DB000D358FF335B7B6DE70E4A0F4BD358FC3360
:104DC0005B6C636067E7FEF739FF69E7094A0A4BE6
:104DD000D3581B6CF5E7074A074BD258EE235B000C
:104DE000D358636002F0CAFDA06054E7200001F0D0
:104DF000BDF851E7780800208C04000070B504006D
:104E000086B00326002877D0D023AA4D9B00EB580C
:104E1000023E9B0770D40078342800D900E209F0E4
:104E2000A9FC35003A0043004A004E0052005800E9
:104E30005D0062006E0078007D00820087008C00BB
:104E4000910096009B00A000A500AA00AF00B4004E
:104E5000B900BE00C300C800CD00D300D900FF01D7
:104E6000E300FA000D0136015D014F0162016B01A3
:104E7000710177017D01830189019A01C101B001AE
:104E8000D101D801DF01E501EA01F1012079FDF747
:104E90001DFF060038E02379022B34D0864AA9583A
:104EA000F02252008B5404E0606806F077F8002886
:104EB00029D1002628E0606806F086F8F7E76068E8
:104EC00006F098F8F3E77C4B2279EB58FE331A7022
:104ED000EFE7794B6268EB585A64EAE7764B626811
:104EE000EB589A64E5E7616800290CD0002002F0D5
:104EF00037F911260028DCD0300006B070BD61689B
:104F000001200029F3D10326FDF7B3FCFDF7ACFC2B
:104F1000F2E7616802200029E9D1F4E76168032023
:104F20000029E4D1EFE7616804200029DFD1EAE736
:104F3000616805200029DAD1E5E7616806200029CB
:104F4000D5D1E0E7616807200029D0D1DBE76168AF
:104F50007F200029CBD1D6E7616880200029C6D107
:104F6000D1E7616881200029C1D1CCE76168822046
:104F70000029BCD1C7E7616883200029B7D1C2E707
:104F8000616884200029B2D1BDE7616885200029CD
:104F9000ADD1B8E7616886200029A8D1B3E7616880
:104FA00087200029A3D1AEE76168882000299ED11F
:104FB000A9E761688920002999D1A4E761688A205E
:104FC000002900D093E79EE761688B20002900D07C
:104FD0008DE798E7384B2079EB58FD331870374B45
:104FE0009B6D0193984764E73A22237A324E03A9D6
:104FF0000B70AB59FF329A5C18784A70072202F0A6
:1050000019FC002800D17EE7AB592933FF33043463
:1050100006CC06C34DE73A22237A274E03A90B702C
:10502000AB59FF329A5C18784A70072202F002FCF2
:10503000002800D167E7AB592833E8E73A22237A02
:105040001D4E03A90B70AB59FF329A5C18784A7059
:10505000072202F0EFFB002800D154E7AA590434DC
:1050600013003133FF3303CC03C33C3B1B78022BCB
:1050700000D01EE7DF33FF33D35C002B00D118E7ED
:105080000E4BDB6A01939847FDF7ECFC11E73A22DF
:10509000237A094E03A90B70AB59FF329A5C18783A
:1050A0004A70072202F0C6FB002800D12BE7AB595B
:1050B0003033ACE7780800208C040000782D01081C
:1050C000636804A9049301230B71574BEB581878BC
:1050D00002F0C2FB002800D0EBE614E7636804A9E5
:1050E00004930023F0E723795A1E0E2A00D90AE719
:1050F0004D4AA9589222D4E64B4B6268EB58FC33D8
:105100005A61D6E6484B6268EB58FC339A61D0E6A8
:10511000454B6268EB58FC33DA61CAE6424B626881
:10512000EB58FC331A62C4E63F4B6268EB58FC3321
:105130005A62BEE623793C4C03AE33702B590622EB
:105140001878310002F076FB002800D1DBE62B59FD
:1051500032785A71ADE69C222379334C03AE33701A
:105160002B5952009A5C1878B2703100052202F077
:1051700061FB002800D1C6E62B593278FF339A71C3
:1051800097E62379284C03AE33702B590A221878FE
:10519000310002F04FFB002800D1B4E62B593278E1
:1051A0001A7186E62379204C03AE33702B590922FD
:1051B0001878310002F03EFB002800D1A3E62B59FD
:1051C000FF33C5E7184B6268EB589A60FC33DA602E
:1051D0006FE6154B2279EB581A73FF335A7368E662
:1051E000114B6268EB58FC335A6462E60E4B6268FE
:1051F000EB581A645DE66068002800D183E6FEF78C
:1052000059FD46E6A379012B00D97CE6064B61687F
:10521000EA58EE235B00D150606801F025FF68E694
:10522000200000F0AFFE34E68C040000D023F7B578
:105230002C4D9B00EB58040001209B0724D4E278FE
:105240001530032A20D82C23274E5343AA59D318AC
:1052500022004C3383CA83C383CA83C303CA03C3F4
:105260002278E378002A10D0204AA168019201AA8E
:10527000D05C01F075FF002805D1E078616802F08C
:105280001FF9002813D01120FEBD194AA168009211
:10529000184A01926A46D05C01F062FF0028F2D100
:1052A000E37801AAD05CE16801F05AFFE9E763788E
:1052B000012B07D12C20E3785843AB594C301818F8
:1052C00001F076F82C22E178AB594A439B18012271
:1052D000DB6E52421A60FDF7C7FAFDF7CAFA0020EA
:1052E000D2E7C046780800208C04000080838689BD
:1052F0008184878A8285888BD023F0B5164E9B00E7
:10530000F458022389B01C40013B002C20D11533F6
:1053100003281DD82C25114F4543F3595B194E33F3
:105320001A781623002A13D020222100684607F09D
:1053300061F96B46F05945194C3507CB07C507CBCA
:1053400007C506CB06C5FDF78FFAFDF792FA2300D5
:10535000180009B0F0BDC046780800208C04000099
:10536000F0B5030003273B4087B014001A000293F6
:10537000D0231C322C4E22709B00F35800900191D8
:1053800001209B074ED42C230099284D4B43715983
:105390003800CB1819004D3109780139012941D85D
:1053A00000991330B9423DD84E331B78002B39D0C9
:1053B0000F2313403A222370019B05AF1B79FF3264
:1053C0005BB23B70735939009A5C18787A70072287
:1053D00002F030FA002803D004222378934323708C
:1053E000019B00221B6839000393059373591878B9
:1053F00002F020FA002803D0082223789343237078
:105400002378029A934208D12C22009973594A4377
:105410009B18019A643303CA03C3FDF725FAFDF70D
:1054200028FA002007B0F0BD780800208C040000A6
:105430000023F0B585B002AA05001380032498422A
:1054400004D0FEF717F8002803D00124200005B08F
:10545000F0BD01F0A7FC0028F7D101F09DFC011E72
:1054600003D114224E4807F0C5F8012304214D4E04
:105470004D4A02ACB3544D4AB05C019201432878C6
:10548000B15402A908714B7100210138E1710D2856
:1054900000D97CE009F05AF9077B7B3E484D7B7BC5
:1054A0007B547B6E586AD0239B00F45820231C4009
:1054B000CBD1FDF759FB04213D4B2200F75869562B
:1054C000387802F027FA0723FF37B87102AAFF20C5
:1054D0005371FEF745FB041E09D00421344B695675
:1054E000F7580122387802F015FAFF37B871922385
:1054F000DB00F3582B61002C4BD001F04DFC002851
:10550000A4D104222B4BF054019BF35C9343019AEA
:10551000B3549BE70022022002A901F047FA1324AA
:105520000028E4D10024E2E7A888FEF745FB040048
:10553000DDE70C22A888AA56A968FEF769FBF6E702
:10554000002202A90D20E8E7194B0224F358FC338E
:105550001B78002BCBD12C796007400F00F0DCFCCE
:1055600002AB1C70012219001020D6E7002202A90C
:105570001220D2E702AAD37100F0B4FC0124071E66
:10558000B5D100F097FC380000F084F9CAE7022496
:10559000ADE703A801F052FBFDF766F956E7C046F8
:1055A000D00C002078080020590400008904000075
:1055B0008C0400001C040000F0B504008BB000282F
:1055C00003D1032528000BB0F0BDFDF753FF0125E3
:1055D000071E0190F6D105AE307014220100464836
:1055E00007F008F8454B464AD554464BD554237826
:1055F000AB425FD0002B04D0032B69D000970197FA
:1056000012E0414B3E4AD5541F2233781A404023C2
:105610001343337023790193A3680293A3890393FF
:105620000E230127E356009302239C2208A90B7046
:10563000364D334B52005B599A5C8A70187802F0F1
:10564000D6F82F4E0690002F54D073591A00FE3210
:105650001278002A17D10099021C40B207AF884285
:1056600001DA6A4612783A709C2252009A5C1878E5
:10567000BA703900052202F0DDF80028A1D0735974
:105680003A78FF339A71039B029A019905A8FEF7B5
:10569000D3F9051E2AD122781D4BF25401231D4A4D
:1056A000B15C0B43B354FDF7DFF89223DB00F358F2
:1056B000236187E7E27B131C082A00D90823124ADA
:1056C0000F498B541F2233781A4080235B429FE797
:1056D0000D4B0B4AD554202332785B421343337071
:1056E00063680293238903930A239AE700220A4BF3
:1056F000F254DAE70225D8E7BC0C0020450400008C
:10570000780800201A040000190400008C0400002E
:1057100044040000890400001C04000073B5084E16
:10572000084D01A97359040008700E22187802F080
:1057300081F8002803D046237259FF33D45473BD37
:10574000780800208C040000F0B500258DB004918D
:105750000592039383780400AB4226D111231026CF
:10576000C356865782680293039B37001A604579B7
:10577000002D15D0022308A90B70837C8B70C07C90
:1057800002F035F843B201939E4201DA6B461F796D
:10579000019B7FB29E420BDC0022039B1A60002516
:1057A000049B029A1F70059B1A7028000DB0F0BD73
:1057B0000025A189A268E3898A426D415B18EDB298
:1057C0009A42EDD3082308AE33703100E07C02F03A
:1057D0000EF8E18943B2A068029309F05BF8012951
:1057E000DED1212377703370A37C3100B370E07C6D
:1057F00001F0FDFF019B47B2BB42D1D12579002DBD
:10580000CED002230AA90B71E07C02F003F8C6E7B0
:10581000034B10B5B8331B68002B00D0984710BD60
:10582000F40E00200223064A10B511780B431370C2
:10583000044B94331B68002B00D0984710BDC04622
:10584000B40F0020F40E00200423064A10B511788E
:105850000B431370044B94331B68002B00D0984704
:1058600010BDC046B40F0020F40E00201FB5342236
:1058700002AB002900D02F221A70054A1871AC32F1
:1058800012681900107801F0B2FF05B000BDC046E3
:10589000F40E002010B503F052FB084C20640848B9
:1058A00003F00EFB0123074A943411780B43137065
:1058B0002368002B00D0984710BDC046F40E00208E
:1058C0003C0F0020B40F0020F7B5040000920193B4
:1058D0000F0003F034FB1C4D0600296AE86903F051
:1058E00002FAFA21301A490208F0D4FF1E235C4361
:1058F000164A0020A418A419641AA6420AD919004D
:10590000301B794308F040FF1E230130C0B24743EB
:105910005F43E419009B984201D30020FEBD686AF2
:10592000A96A03F0E0F90A4BC018A042F5D3094B6D
:10593000A41BDB6D009398472969201A03F014FB20
:10594000019B18600120E9E7F40E002048080000E0
:105950002AF4FFFF782D0108F0B589B00700140084
:1059600004AD6846102200211E0006F043FE280008
:105970001022002106F03EFE6B466A461F703B0A6D
:1059800053703B0C9370230A147153713F0E230C18
:10599000240ED7709371D4712B008C22102168468D
:1059A00005F004FA68782B780002C018310008F07E
:1059B00071FF0E9B198009B0F0BD0000F0B5051E07
:1059C00014D00024082720000B4E2B5D1B025840EA
:1059D0003B0002B24000002A09DB80B2013B9BB2CF
:1059E000002BF6D10134A3B29942EED8F0BD0200EB
:1059F000724090B2F2E7C04621100000002370B55B
:105A00000F4CC360227B123386B0050081601A42BE
:105A100013D0260004A91F33AC360B703368B034A2
:105A2000187801F0E4FE2368039041B230681A7AD6
:105A3000007800955B6801F018FF06B070BDC046A5
:105A4000F40E0020F0B587B000900191170004AD6E
:105A50003623002A00D03223134E2B70AC36336825
:105A60002900187801F0C3FEC3B20400039000219E
:105A7000012B12D933232B7033682900187801F0D9
:105A8000B6FEFF262100019B0500D809009B31408E
:105A9000C01808F0FFFE35406918C8B23900FFF79A
:105AA000E5FE07B0F0BDC046F40E0020F0B50600DC
:105AB00085B0080017001C4C00292ED001210020C1
:105AC000FFF7D4FE2300BC331B6805001A7BD20706
:105AD00000D51D690822237B134208D0934323730A
